:020000040800F2
:1000000018070020B50100087D120008C111000882
:10001000791200088D020008C514000800000000D5
:100020000000000000000000000000008512000831
:100030009D020008000000008112000889120008DB
:10004000CF010008CF010008CF010008CF01000850
:10005000CF010008CF010008CF010008CF01000840
:10006000CF010008CF010008CF010008CF01000830
:10007000CF010008CF01000891020008CF0100085D
:10008000CF010008CF010008CF010008CF01000810
:10009000CF010008CF010008CF010008CF01000800
:1000A000CF010008CF010008CF010008CF010008F0
:1000B000CF010008CF010008CF010008CF010008E0
:1000C000CF010008CF010008CF010008CF010008D0
:1000D000CF010008CF010008CF010008CF010008C0
:1000E000CF010008CF010008CF01000800F002F89E
:1000F00000F050F814A696E8000CB244B344DA4578
:1001000001D100F047F8BAE80F000FA696E83000DA
:10011000A5EB040504EB0607AAEB0704A7F101070A
:100120004FEA15154FEA3414A4F10104AC4201D38F
:1001300000F030F813F0010F18BFFB1A43F0010371
:1001400000F001F8DBE71847842A0000A42A000029
:10015000103A24BF78C878C1FAD8520724BF30C8F3
:1001600030C144BF04680C60704700007047000055
:100170000023002400250026103A28BF78C1FBD8B0
:10018000520728BF30C148BF0B6070471FB51FBD65
:1001900010B510BD00F044F81146FFF7F7FF01F06D
:1001A00093F900F062F803B4FFF7F2FF03BC00F02C
:1001B00065F800000948804709480047FEE7FEE768
:1001C000FEE7FEE7FEE7FEE7FEE7FEE7FEE7FEE707
:1001D00004480549054A064B704700008D12000887
:1001E000ED00000818010020180700201803002067
:1001F0001803002070477047704710B500F008F8EA
:10020000006810BD10B5044600F002F8046010BD8F
:100210000048704720000020004870472000002060
:100220007546FFF7F9FFAE4605006946534620F0D4
:100230000700854618B020B5FFF7CAFFBDE820408B
:100240004FF000064FF000074FF000084FF0000B92
:10025000AC46ACE8C009ACE8C009ACE8C009ACE801
:10026000C00921F007018D46704710B50446AFF371
:1002700000802046BDE81040FFF795BF01491820D7
:10028000ABBEFEE72600020070470000FEE700005C
:1002900040F28000C2F2000000F008B87047000091
:1002A000EFF3108072B600BFFEE7000010B5D0E992
:1002B0000FCE0168DCF800300A6823FA0EF35C0701
:1002C0002AD512F0040427D00A68920603D40A68DB
:1002D00022F004020A602F22C4F20202914240F28C
:1002E0000402C4F202025BDD3023C4F2020399422D
:1002F00072D04423C4F20203994273D05823C4F24B
:100300000203994240F07A804FF480231360C16A5F
:10031000002940F098806FE09C0727D512F0020476
:1003200024D00A68920606D40A6822F00A020A60FB
:10033000012280F821202F22C4F20202914240F2D1
:100340000402C4F202023BDD3023C4F202039942EC
:1003500060D04423C4F2020399425FD05823C4F210
:100360000203994260D14FF4003365E01B0743D587
:1003700012F0080208BF10BD0A6822F00E020A60DF
:10038000012101FA0EF2CCF80420816380F82110DB
:10039000016B0022002980F8202054D12CE000BFFE
:1003A0000823C4F20203994222D01C23C4F20203A0
:1003B000994223D140231360C16A002943D11BE035
:1003C0000823C4F2020399422CD01C23C4F2020376
:1003D000994229D120232FE04FF480631360C16A32
:1003E00089BB09E04FF480431360C16A59BB03E045
:1003F00004231360C16A31BB10BD00BF02F1680461
:100400004FF08063A14208BF4FF480031360C16ABC
:10041000C9B9F1E74FF400730EE000BF4FF4005389
:100420000AE000BF022307E002F168044FF0007306
:10043000A14208BF4FF400131360816A0022002913
:1004400080F82020D8D0BDE8104008470146002899
:100450004FF0010008BF70472DE9F043D1F800C00C
:100460004FF6F873CBF6FD734CF6CD426344CCF6F1
:10047000CC42A3FB02236FF0030202EA93020023A3
:10048000C4F2020301F10C08C1E90F320222D1E9E2
:10049000019E98E8F00181F82120DCF8002043F665
:1004A000F0739A4342EA090242EA0E0222432A43C7
:1004B00032433A4342EA0802CCF8002000228A6321
:1004C00081F8210081F820200020BDE8F04370472A
:1004D00090F820C0BCF1010F04BF02207047F0B5B6
:1004E0004FF0010E80F820E090F821C0BCF1010F20
:1004F00026D14FF0020C80F821C04FF0000CC0F85C
:1005000038C0D0E900C4C56AC66BDCF80070102C96
:1005100027F00107CCF80070006C0EFA00F0706054
:100520000846CCF8043004BF10460A46CCF8080050
:10053000CCF80C20DCF8000045B140F00E000DE0D6
:10054000002180F820100220F0BD00BF20F0040040
:10055000CCF80000DCF8000040F00A00CCF8000005
:10056000DCF8000040F00100CCF800000020F0BDF5
:10057000B0B5044600F018F9054640F20000C2F29A
:1005800000000078611C18BF044400BF00F00CF9A3
:10059000401BA042FAD3B0BD2DE9F04F82B00E68E7
:1005A000002E00F0FD8041F20042C4F2010204235B
:1005B00040F2004E904208BF03234FF6FF7CC4F286
:1005C000010E009300240123C1F2100C4FF0000A29
:1005D0004FF000094BE000BF41F20002C4F20102FB
:1005E000009F904208BF022704F00C030F229A409C
:1005F0002BEA020207FA03F34FEA9A051A4346F878
:1006000025204E6840F20C45F202DEF8082054BF67
:1006100022EA080242EA0802C4F20105CEF80820E4
:100620002A68B30254BF22EA080242EA08022A609A
:10063000B303DEF8042054BF22EA080242EA0802AB
:10064000F303CEF80420DEF800204FF0010354BF7E
:1006500022EA080242EA0802CEF800200E680AF1F7
:10066000010A36FA0AF204F1040400F0998003FA50
:100670000AFB16EA0B08F1D04E68664512DC122E12
:1006800056D8DFE806F0350B4D49555555555555AB
:100690005555555555555545510000BFD1F80C904D
:1006A00046E000BF4FF6FF72C1F2210296420FDC16
:1006B0000022C1F2110296421AD00022C1F21202A7
:1006C000964215D00022C1F22102964210D02FE0AE
:1006D0000022C1F2220296420AD00022C1F2310267
:1006E000964205D00022C1F23202964220D100BFCC
:1006F0008A684AB1012A14BFC0F814B0C0F810B01B
:100700004FF0080914E000BF4FF0040910E000BFEB
:10071000CA6802F104090BE04FF0000908E000BFCD
:10072000CA6802F1080903E0CA6802F10C0900BFB7
:1007300002462646B8F5807F24BF0432203E176863
:100740000F25B54027EA050509FA06F63543156079
:10075000CA79D2067FF582AF41F21803C4F20203D0
:100760001A68AEF57E7642F001021A601A6802F04D
:1007700001020192019A2AF0030256F802B040F6F3
:100780000002C4F20102904208D040F60042C4F2D6
:10079000010290427FF420AF012725E7002723E7DD
:1007A00002B0BDE8F08F000040F21010C2F200006D
:1007B0000068704740F2000040F21011C2F20000E1
:1007C000C2F2000100780A68104408607047000017
:1007D00080B542F20000C4F20200016841F010014D
:1007E0000160032000F08CF80F2000F005F800F005
:1007F00027F8002080BD000070B540F20006C2F26C
:10080000000640F208013278C2F200014FF47A7318
:100810000968B3FBF2F20446B1FBF2F1084600F0BE
:1008200085FB0F2C4FF0010508D838B94FF0FF3089
:1008300021460022002500F037F87460284670BD7C
:1008400082B041F21800C4F202000168022241F0B5
:1008500001010160016801F0010101910199416804
:1008600041F080514160406800F080500090009855
:100870000420C4F20100016862F31A61016002B051
:1008800070470000002848BF704700F01F01012298
:1008900002FA01F11C2202EAD0004EF20012CEF25E
:1008A000000281507047000010B54EF60C5CCEF28D
:1008B000000CDCF80030C3F3022E8EF00704042C89
:1008C00028BF0424BEF103034FF0FF3E0EFA04F4E8
:1008D00038BF0023A14399400EFA03F39A43114312
:1008E00000F00F0200F160430901043A03F564438C
:1008F0006244002848BF02F10C03197010BD0000CB
:100900004EF60C51CEF200010A684FF6FF031A4072
:1009100060F30A2242F0806040F0FD70086070478A
:10092000002804BF012070472DE9F04381B042F256
:100930000008C4F202080446D8F800000D4600F092
:10094000070081420CD9D8F8000020F007002843A6
:10095000C8F80000D8F8000000F00700A8426CD1E9
:10096000206841F204098107C4F2020917D5410742
:1009700005D5D9F8001041F4E061C9F8001001076D
:1009800005D5D9F8001041F46051C9F80010D9F824
:100990000010A26821F0F0011143C9F80010C0074F
:1009A00042D1D8F8000000F0070085420CD2D8F8F8
:1009B000000020F007002843C8F80000D8F8000025
:1009C00000F00700A84238D12068410707D5D9F8C0
:1009D0000010E26821F4E0611143C9F8001000073B
:1009E00008D5D9F80000216920F4605040EAC10020
:1009F000C9F80000D9F8002002F00C00082841F2E4
:100A00000020C0F27A004DD142F6BA33C2F38341DE
:100A1000C0F60003595CD20338D440F60010C0F28F
:100A20003D0048433EE000BF606859F8041C0228BE
:100A300008D0012826D1890306D4012001B0BDE8E1
:100A4000F08300BF8901F8D5D9F8001021F0030127
:100A50000843C9F80000FFF7A7FE064641F28837B1
:100A6000D9F80000616800F00C00B0EB810F98D05D
:100A7000FFF79AFE801BB842F2D9032001B0BDE80F
:100A8000F08300BF8907D8D5DEE700BFD9F8002082
:100A900042F6B833C2F34042C0F600039A5C4843C2
:100AA000B0FBF2F0D9F8001042F6A032C1F3031106
:100AB000C0F60002515C40F2080220FA01F140F257
:100AC0000400C2F200000068C2F200021160FFF7E9
:100AD00093FE002001B0BDE8F083000040F2080062
:100AE00041F20401C2F20000C4F202010068096888
:100AF00042F6B032C1F30221C0F60002515CC84098
:100B00007047000040F2080041F20401C2F2000008
:100B1000C4F202010068096842F6B032C1F3C22192
:100B2000C0F60002515CC84070470000002804BFB6
:100B3000012070472DE9F04182B00446007841F26F
:100B40000006C007C4F202060CD0706800F00C006A
:100B5000042840F081803068800303D56068002855
:100B600000F04681207880071BD5706810F00C0FCC
:100B700009D0706800F00C00082840F08780706889
:100B8000C00300F183803068800703D52069012805
:100B900040F02E813068616920F0F80040EAC10021
:100BA00030602078000713D4207840072CD4E56902
:100BB000002D00F01881706800F00C00082840F04B
:100BC000A780012D40F00481012002B0BDE8F08132
:100BD000A069002800F084800020C4F24220012196
:100BE000C0F88014FFF7E0FD054600BF706A80077B
:100BF00000F1B280FFF7D8FD401B0228F6D9032090
:100C000002B0BDE8F08100BFF0695FEAC00808D417
:100C1000F06940F08050F061F06900F08050009081
:100C2000009847F20007C4F200073868C00549D4AD
:100C3000386840F480703860FFF7B6FD054600BFA5
:100C40003868C0053ED4FFF7AFFD401B6428F7D9D4
:100C5000032002B0BDE8F081706800F00C000828A5
:100C600003D17068C0033FF576AF61683068002932
:100C700000F00C81B1F5A02F00F00081B1F5803FAC
:100C800040F01A8140F480301CE100BF2069002848
:100C900040F20000C4F2422000F08880012101608F
:100CA000FFF782FD054600BF306880073FF572AF51
:100CB000FFF77AFD401B0228F6D9032002B0BDE8F9
:100CC000F08100BFE168306A002900F09D800529AD
:100CD00000F09280012940F0AF8040F00100B1E0C7
:100CE0000020C4F242200021C0F88014FFF75CFD10
:100CF000054600BF706A80077FF556AFFFF754FDC9
:100D0000401B0228F6D9032002B0BDE8F08100BFE5
:100D10000027C4F2422700203866FFF745FD022D68
:100D200005460DD13068800140F1DE80FFF73CFDC3
:100D3000401B02284FF00300F4D902B0BDE8F08157
:100D4000306880014FD5FFF72FFD401B02284FF080
:100D50000300F5D9F1E700BF40F20800C2F200003D
:100D6000006844F6D351C1F26201A0FB0101480AB8
:100D7000019000BF00BF0198411E002801913FF47F
:100D800013AF00BF0198411E002801913FF40CAF42
:100D900000BF0198411E002801913FF405AF00BF3C
:100DA0000198411E00280191E4D1FDE60021016077
:100DB000FFF7FAFC054600BF306880077FF5F1AE0B
:100DC000FFF7F2FC401B02284FF00300F4D9B4E710
:100DD0007068216A00F480328A4209D1616A00F4A5
:100DE0007010884204D1002002B0BDE8F08100BF3D
:100DF000012002B0BDE8F08140F004003062306AAA
:100E000040F001001EE000BF20F001003062306AB7
:100E100020F004003062FFF7C7FC054641F2883736
:100E2000306A800720D5FFF7BFFC401BB8424FF067
:100E30000300F5D981E700BF20F001003062306A7D
:100E400020F004003062FFF7AFFC054641F288371E
:100E5000306A800708D4FFF7A7FC401BB842F7D9D7
:100E6000032002B0BDE8F081B8F1000F3FF59FAE5E
:100E7000F06920F08050F06199E600BF40F48020D6
:100E80003060306840F480301CE000BF20F48030D7
:100E90003060306820F480203060FFF785FC054624
:100EA000306880037FF55EAEFFF77EFC401B642850
:100EB0004FF00300F4D940E720F480303060306810
:100EC00020F480203060FFF76FFC05463068800317
:100ED0003FF548AEFFF768FC401B6428F6D90320B5
:100EE00002B0BDE8F08100BF206AB0F5803F05D1B7
:100EF0007168A26821F40031114371607168626AFF
:100F000021F4741111430843706001203866FFF723
:100F10004BFC0446306880013FF565AFFFF744FCA9
:100F2000001B02284FF00300F4D906E7411E002001
:100F3000B0EB116F1CBF012070474EF21002CEF2D1
:100F4000000251604EF62351CEF20001F0230B70E7
:100F5000072190601160704770470000002804BFAF
:100F60000120704710B5044690F8410028B90020D0
:100F700084F84000204600F063F8242084F8410003
:100F80002068D4E90212C36823F40053C3600369E4
:100F900023F440531A430261D4E904231143C26885
:100FA000194341F20C639A431143C1604169A2693C
:100FB00021F44071114343F60002C4F20102904251
:100FC000416103D0FFF78AFD02E000BFFFF79AFD01
:100FD000D4E90023192148439900B0FBF1F048F20D
:100FE0001F5CC5F2EB1CA0FB0C314FF69C7349094A
:100FF000C0F6FF7301FB0300322303EB0010A0FBDC
:101000000C03F02000EA531000EB0110C3F343116E
:10101000084490601069202120F4904010615069CC
:1010200020F02A005061D06840F40050D0600020C9
:10103000606484F8411084F84210606310BD0000C1
:10104000F0B585B040F600050446C4F2010500681D
:1010500005F54051002788420497CDE902770197B2
:1010600002D005B0F0BD00BF41F21800C4F202008A
:10107000016801AE41F480410160016801F48041E2
:1010800000910099016841F0040101600068314657
:1010900000F00400009000984FF4007001900220CE
:1010A0000290032004902846FFF776FA4FF4806000
:1010B000CDE90107284631460397FFF76DFA40F264
:1010C00080054420C2F20005C4F2020010218022F3
:1010D00085E883002846C5E90327C5E90577EF6160
:1010E000FFF7B4F9002818BFFFF7DAF8A5636C62C0
:1010F00005B0F0BD90F84130202B09D1944600296D
:101100004FF0010218BFBCF1000F05D11046704727
:1011100002221046704700BF70B5002221230162F1
:10112000A0F824C0A0F826C0426480F841300468CA
:10113000836B41F20D4E41F2BD4541F29126C0F65E
:10114000000EC0F60005C0F60006C3E90AE5C3E9D3
:101150000C62221D044618466346FFF7B9F9216860
:1011600020466FF040020A60016851E8051F0268DE
:1011700041F0800142E80513DBB1016851E8051F29
:10118000026841F0800142E8051393B1016851E81B
:10119000051F026841F0800142E805134BB1016868
:1011A00051E8051F026841F0800142E80513002B59
:1011B000DAD1002070BD00007047000070470000C9
:1011C000FEE7000080B582B041F21400C4F20200D4
:1011D0000168002241F0010101600068002100F077
:1011E0000100019001980E20FFF75EFB0E2002B077
:1011F000BDE88040FFF746BB83B041F21800C4F25F
:101200000200016841F010010160016801F0100165
:1012100002910299016841F020010160016801F02A
:10122000200101910199016841F004010160006809
:1012300000F004000090009803B0704780B540F2C1
:10124000C40043F60001C2F20000C4F20101002311
:101250004FF00C0C4FF4E13280E80E00C0E903338C
:10126000C0E905C3C361FFF779FE002808BF80BD50
:10127000BDE88040FFF714B8FEE70000FEE700007D
:101280007047000070470000FFF794BA70470000F5
:10129000406A01684A6990F84130212B2DD112F043
:1012A00080022AD00021C184016851E8031F02682E
:1012B00021F0C00142E80313DBB1016851E8031FCC
:1012C000026821F0C00142E8031393B1016851E8BC
:1012D000031F026821F0C00142E803134BB101680B
:1012E00051E8031F026821F0C00142E80313002BFC
:1012F000DAD1202180F841100168496990F8422034
:10130000222A40F07D8011F0400179D00021C18572
:10131000016851E8031F026821F4907142E8031349
:10132000BBB3016851E8031F026821F4907142E8E1
:10133000031373B3016851E8031F026821F490712D
:1013400042E803132BB3016851E8031F026821F43C
:10135000907142E80313002BDAD11AE0016851E8DA
:10136000051F026821F0010142E80513DBB10168A5
:1013700051E8051F026821F0010142E8051393B10D
:10138000016851E8051F026821F0010142E80513D8
:101390004BB1016851E8051F026821F0010142E8E4
:1013A0000513002BDAD1016B012924D1016851E822
:1013B000031F026821F0100142E80313DBB101684A
:1013C00051E8031F026821F0100142E8031393B1B2
:1013D000016851E8031F026821F0100142E803137D
:1013E0004BB1016851E8031F026821F0100142E887
:1013F0000313002BDAD1202180F842100021016371
:10140000416C41F010014164FFF7A6BD0168406ADC
:101410000968890648BFFFF7CFBE0021C18400BF1D
:10142000016851E8051F026821F0800142E80513B8
:1014300083B3016851E8051F026821F0800142E88A
:1014400005133BB3016851E8051F026821F08001D4
:1014500042E80513F3B1016851E8051F026821F065
:10146000800142E80513002BDAD113E0016851E84E
:10147000031F026841F0400142E80313002B08BF3C
:101480007047016851E8031F026841F0400142E8DB
:10149000031393B1016851E8031F026841F0400152
:1014A00042E803134BB1016851E8031F026841F0A1
:1014B000400142E80313002BD8D17047406AFFF780
:1014C0007DBE0000FEE7000090B0FFF781F9002428
:1014D0000120CDE90B44CDE9094406900A904FF470
:1014E000E0104FF4803102250F9006A8CDE90714D3
:1014F000CDE90D51FFF71AFB20B1EFF3108072B662
:10150000FEE700BF0F20CDE901054FF48060CDE973
:10151000040401A802210394FFF702FA20B1EFF3BB
:10152000108072B6FEE700BFFFF766FEFFF74AFEC7
:10153000FFF784FE40F20C1B4DF20A7840F20009DE
:1015400040F20C0640F2C40AC2F2000BC3F6234874
:10155000C4F24009C2F20006C2F2000ADBF8000041
:10156000414601F06BF80546CBF8000001F03AF86F
:1015700000F058FB00F0A6FB04462846294601F07F
:101580005DF801F02FF800F04DFB00F09BFB0746E3
:101590002846494601F0B4F801F024F800F042FB77
:1015A00000F090FBB060504631461022C6E900477B
:1015B000FFF7A0FD0A20FEF7DBFFCFE7490050EA66
:1015C000C12018BF04204A0D18BF40F0010040F2AE
:1015D000FF72B2EB515F08BF40F00200012808BF64
:1015E000052070472DE9F74F144694B00021C4E957
:1015F00002111599079121F00045C9498D4206DC79
:101600001599C4E9000117B00020BDE8F08FC54965
:10161000DFF814A3A9423CDD0799C44E0029C44F4A
:10162000C44A1599534619DD00F0EEFE554506D023
:10163000C14AC24B00F0E8FEC4E900010AE04FF0E5
:10164000D352BE4B00F0E0FE32463B4600F0DCFEDB
:10165000C4E9000117B00120BDE8F08F00F064FB81
:10166000554506D0B44AB54B00F05EFBC4E9000115
:101670000AE04FF0D352B14B00F056FB32463B46E6
:1016800000F052FBC4E9000117B04FF0FF30BDE895
:10169000F08FAB49A942159978DB21F000418346D0
:1016A0008846A84AA84B00F0A5FD0022A74B00F0F1
:1016B0003BFB00F045FD099000F071FD06460F462A
:1016C0009C4A534600F096FD43465A4600F090FE71
:1016D00080468A46984A994B3046394600F08AFD42
:1016E0002A0D01250B924246534600F081FE032D40
:1016F000C4E9000139D00B98C1F30A51401A05EB37
:1017000045111139814230DA9148C346784400EBE3
:101710000510CDF80CA00C90D0E9002330463946D6
:1017200000F068FD02460B46049106905846039966
:1017300000F06AFE80468A4602460B4658460399E8
:1017400000F062FE049B069A00F05EFE83460C9851
:1017500003913946D0E90223304600F04BFD5A464A
:10176000039B00F051FE6D1CBDE707980028A2BF47
:10177000099817B0BDE8F08F616881F000416160A1
:10178000099817B04042BDE8F08FFFE784461598EE
:10179000C1F31301C0F30A50A0F2F5304FEA60180C
:1017A00000F01F06C6F1200013900020069007905D
:1017B00041F4801E05206D4676B1664A08EB0001B3
:1017C0007A4452F8213002EB8101B3404A68139900
:1017D00022FA01F1194305E05F4908EB0002794460
:1017E00051F82210A1FB0E27A1FB0C131A449A42B8
:1017F00034BF0123002303EB070A05EB8003D3E981
:1018000001B70F448F4234BF0121002193448B4420
:1018100011B1934502D903E0934501D2012100E0C3
:101820000021C3E901B7514445F82010011EA0F181
:101830000100C1DC0298059F00F10050800F12905A
:101840000298DDE90356800000F0A9FC8346284693
:101850000D9100F0BBFC6FF01D0201F0C4F8CDE962
:101860000E01304600F0B2FC6FF03D0201F0BBF813
:1018700080468A46384600F0A9FC6FF05D0201F010
:10188000B2F8074642465346119100F04DFADDE9A1
:101890000E2300F049FA5A460D9B00F045FA002548
:1018A0000E465A4628460D9B00F0AEFDDDE90E239C
:1018B00000F0AAFD4246534600F0A6FD3A46119BB1
:1018C00000F096FDDFF898A0244A534600F092FC01
:1018D00007468846234A244B3146284600F08AFCB6
:1018E0003A46434600F020FA074688464FF0A842A1
:1018F00053463146284600F07DFC3A46434600F008
:1019000013FA159A12F0004F04D0129A81F0004198
:1019100052421292C4E90001129817B0BDE8F08F4C
:10192000FB21E93F7CD90240FB21F93F7370032E74
:101930008A19A33B000040543163621A61B4D03D60
:10194000FB21394183C8C96D305FE43F0000E03FAF
:101950009813000014130000F6120000182D4454D0
:10196000FB21F93D3326A611460B113C2DE9FF4D15
:1019700021F0004807460C46B8F1795F08DA00F01C
:10198000DFFB002801BF0020324904B0BDE8F08D24
:101990003A4623461046194600F02CFC05460246FE
:1019A0002D480E460B460621784400F05DF82A4685
:1019B000334600F01FFCDDE9022382468B463846A1
:1019C000214600F017FC04460F4652465B46284667
:1019D000314600F00FFC22463B4600F015FD07465D
:1019E0008A464FF0FF322846314600F0FCFF1B4A82
:1019F00090450ADA3A46534600F006FD04B000224C
:101A0000BDE8F04D134B00F0F3BC154A4245A8BFAA
:101A1000A8F500154FF00004B8BF124D22462B4622
:101A200000F0F2FC0646884622462B460020094973
:101A300000F0EAFC04460D463A465346304641461D
:101A400000F0E2FC04B022462B46BDE8F04D00F069
:101A5000CFBC00000000F03FCC1000003333D33F78
:101A60000000E93F0000D23F2DE9F0414F1E00EB9E
:101A7000C7010446D1E9000115461E4637F00602AB
:101A80000DD02A46334600F0B5FB7F1E04EBC7039A
:101A9000D3E9002300F048F937F00602F1D1022F14
:101AA00025D0042F13D0062F18BFBDE8F0812A4699
:101AB000334600F09FFBD4E90A2300F035F92A46AB
:101AC000334600F097FBD4E9082300F02DF92A46AD
:101AD000334600F08FFBD4E9062300F025F92A46AF
:101AE000334600F087FBD4E9042300F01DF92A46B1
:101AF000334600F07FFBD4E9022300F015F92A46B3
:101B0000334600F077FBD4E90023BDE8F04100F054
:101B10000BB900002DE9FF4D054621F0004084B0CF
:101B20000C46B0F1795F0BDA2846FFF747FD042831
:101B300008BF00F06FF8284608B02146BDE8F08DD8
:101B40002A460B46104600F055FB06460F462A462D
:101B5000234600F04FFB804626488A4632463B46E5
:101B600005217844FFF780FF83461098029160B307
:101B7000214A224B4046514600F03CFBCDE9000192
:101B80005A4640465146029B00F034FB8246884646
:101B9000DDE906014FF0FF3200F025FF52464346D3
:101BA00000F032FC32463B4600F024FBDDE9062320
:101BB00000F02AFCDDE9002300F026FC08B02A46EC
:101BC0002346BDE8F04D00F013BC0B465A463046A4
:101BD000394600F00FFB084A084B00F0A5F84246D2
:101BE000534600F007FB08B02A462346BDE8F04DF7
:101BF00000F09AB812100000495555555555C5BF0B
:101C0000012200F0F0BE002213461046114600F0FB
:101C10003BB90000024A0020110700F0E4BE0000BA
:101C200001FDFFFF00B5254B21F0004287B09A422D
:101C300003DC0022134600922BE0214B9A4208D18C
:101C400040B94FF00100FEF7DDFAFFF7DCFF07B007
:101C500000BD03DBFFF7D4FF07B000BD02AAFFF70A
:101C6000C1FC10F003014FF001000DD0012914D088
:101C700002291AD00DF1080C9CE80F00FFF776FE40
:101C800007B081F0004100BD0DF1080C00909CE808
:101C90000F00FFF73FFF07B000BD0DF1080C9CE8F7
:101CA0000F00FFF763FE07B000BD0DF1080C0090B8
:101CB0009CE80F00FFF72EFFE2E70000FB21E93F61
:101CC0000000F07F21F0004201F00043A2F16052D9
:101CD000B2F5801F28BFD2F17F6C0BD95FEA001CE0
:101CE00043EAC20242EB507018BF704728BF20F091
:101CF00001007047B2F5801FBCBF184670474FEA1D
:101D0000410C1CF5001F02D2084600F0C0BD70B5A2
:101D100000F01AFB00000089FFF7F6BF4FF000400B
:101D2000A0F580007047000010B591EA030F48BF8E
:101D300083F0004300F17083841A71EB030C05D229
:101D4000121943EB0C03001B61EB0C014FEA115419
:101D5000A4EB135CDFF81CE11EEA430F18BF9EEAF8
:101D6000445F00F0748021EA045123EA0E0343F437
:101D70008013DCF1200E32D322FA0CFE10EB0E00A1
:101D800023FA0CFE41EB0E01CCF1200E03FA0EFEFD
:101D900010EB0E00CCF1200E51F10001B1F5801FC7
:101DA00032D201EB045112FA0EF2BDE8104058BFD6
:101DB0007047401C38BF5FEA420218BF70470028D6
:101DC00014BF20F0010041F100014FEA410313F577
:101DD000001F38BF7047A1F1C04100F003BB012ACA
:101DE00043EB0302ACF1200CDCF11F0E32BF4FF0CD
:101DF000000E23FA0CF310EB030041EB0451B4EB9B
:101E0000115FD0D0A1EB045101F58011490801EB1D
:101E100004515FEA30000ED350F1000038BF12FACF
:101E20000EFE08D1BDE81040C9E7401C38BF5FEA8C
:101E30004202CAD1C3E7BDE810404FEA410313F59F
:101E4000001F38BF7047A1F1C04100F0CBBA9EEA35
:101E5000445F08D011EA5E0FBDE8104004BF01F0F6
:101E6000004100207047BDE8104070B500F06CFAEA
:101E700064FBBE3E0000E0FF02494FF0000000F0AE
:101E800080BD00BF0000F87F2DE9C04130B4DFF80D
:101E9000A8C23CEA111418BF3CEA131400F0F08009
:101EA0001CEA111481EA030544EAD57418BF1CEA40
:101EB000131500F0CB80A4EB050404F17F7404F546
:101EC00000344FF0004545EAC12145EAC32341EA09
:101ED000505143EA52534FEAC0204FEAC22299427E
:101EE00008BF904200F0A0804FEA13650FF2481639
:101EF000765D4FEA134506FB05F7C7F1807706FBD1
:101F000007F74FEAD737A7FB03687642A7FB06CE51
:101F1000C8F5803838BFA8F1010807FB08E6A6FB22
:101F2000028C4FF0000EE6FB03CED8F100086FEAFA
:101F30000C0C5CF1000C6FEA0E0E4EF1004EA6FB8D
:101F40000C584FF00007E6FB0E87A1FB08C6A0FB6C
:101F500007CE16EB0E064FF0000545F10005E1FB3C
:101F6000076515F1E04E7EBFA4F580345FEA4606B2
:101F70006D4116F1800745F100054FEA172747EA42
:101F800005674FEA15254FEA0666A6F1DE46B6F16B
:101F9000805F20D9384605EBC47124F0010C01EBB9
:101FA0000C11BCF1FE6F02D8F0BCBDE800812442E8
:101FB0005CBF01F5801E9EEAC47F02D4F0BCBDE880
:101FC0000081244200F13980A1F1C041F0BCBDE89C
:101FD000004100F007BA4FEAD02040EA41504FEAF2
:101FE000D1214FEAD22242EA43524FEAD323A7FB40
:101FF000028607FB036605FB02661EEA0E0F58BF4A
:10200000A6EB0056B6EB00564FEA520E4EEAC37EE0
:1020100018EB0E0E56EB530EBCD518EB02085E41C2
:102020007F1C55F10005B5E74FF480154FF0000710
:102030004FF000064FF00008ACE701F1C04101F09D
:1020400000414FF00000F0BCBDE800810CEA131520
:1020500011EA0C1F00D00CE013EA0C1F00F02580E1
:102060004FF0000081EA030101F00041F0BCBDE83F
:102070000081F0BCBDE8004181EA030100F0B2B983
:10208000F0BCBDE8004170B500F05EF9097EFC3E91
:1020900000F007B84FF0000081EA030101F00041B1
:1020A000704781EA030100F09DB9F0BCBDE8004132
:1020B00022494FF000007047FFFDFBF9F7F5F4F2FD
:1020C000F0EEEDEBE9E8E6E4E3E1E0DEDDDBDAD8D3
:1020D000D7D5D4D3D1D0CFCDCCCBCAC8C7C6C5C431
:1020E000C2C1C0BFBEBDBCBBBAB9B8B7B6B5B4B348
:1020F000B2B1B0AFAEADACABAAA9A8A8A7A6A5A433
:10210000A3A3A2A1A09F9F9E9D9C9C9B9A999998F6
:102110009797969595949393929191908F8F8E8E99
:102120008D8C8C8B8B8A8989888887878685858426
:1021300084838382828181800000FF070000F87F12
:102140004FEA41034FEA5353A3F58063D3F11E03D3
:10215000C8BFD3F1210C0CDD4FF0004242EAC1228E
:1021600042EA505232FA03FC8CEAE17CACEBE170BB
:102170007047102BC4BF0020704703F5787CBCF17A
:10218000FF3F04D06FF0004282EA2100704770B533
:1021900000F0DAF84992248000207047F2E710F04E
:1021A000004248BF4042B0FA80F310FA03F10AD06F
:1021B000C3F11D0303F5806302EB03524FEA415064
:1021C00002EBD12170474FF000007047B0FA80F366
:1021D00010FA03F10AD0C3F11D0303F580634FEA3F
:1021E00003524FEA415002EBD12170474FF00000FB
:1021F0007047000070B5DFF848C11CEA111E1EBF11
:102200001CEA13159EEA0C0F95EA0C0F00F06F8084
:1022100081EA03044EEAD47EAE4421EA4C1123EA5B
:102220004C1341F4801143F48013AEF17F7EA1FB87
:10223000024CA0FB0365361955EB0C05A1FB034CC2
:102240004CF10003A0FB021C16EB0C06654153F198
:102250000003094218BF46F0010613F4007F0BD1BA
:102260004FEA03314FEA053041EA155140EA165072
:1022700034036FF003020AE04FEAC3214FEAC5209E
:1022800041EA555140EA5650F4026FF0020202EB67
:102290002E4201EB025585EACE710AD05FEA440C6A
:1022A00018BF24F0004450F1000041F1000120EA81
:1022B000D47040F2FE7C624500D270BDA84214BFCB
:1022C0004FF080444FF04044002E08BF0024BEF180
:1022D000806FA8BFA1F1C041BDE8704080F282804C
:1022E00001F1C04101F000414FF0000070470CEADD
:1022F00013159EEA0C0F18BF95EA0C0F06D081EA61
:10230000030E4FF000000EF0004170BD00F01CF80D
:102310008900013E00F007B800F009B84FEA430C0D
:102320005FEA5C5C08D081EA030100F05BB84FEA29
:10233000410C5FEA5C5CF6D102494FF00000704747
:102340000000FF070000F87F0EF1020E2EF0030ED2
:102350005EF8046B364205D4012A43EB030515F5FC
:10236000001F12D8012841EB010C1CF5001F0CD8EE
:102370000ED14FEAD17C0CEB4C0C0CF1020C15F594
:10238000001F08BF4CEBD37C04E04FF0080C01E0C9
:102390004FEAD37C0CEB4C0526FA05F606F007064F
:1023A000B6F1040C06D20EEB860CBDE870404CF082
:1023B000010C6047DFE80CF0090B02024FF000410E
:1023C000A1F500214FF0000070BD1946104601280C
:1023D00051EB010418BFD4F5001484BF002001F0B4
:1023E000004170BD0808A0F500114FEA31017047A7
:1023F00010B591EA030F81F000413FF59DAC83F0E9
:10240000004300F009B8000010B591EA030F48BF7F
:1024100083F000433FF590AC841A71EB030C07D2B4
:102420008CF0004C121943EB0C03001B61EB0C0108
:102430004FEA1154A4EB135CDFF8A4E11EEA430F4A
:1024400018BF9EEA445F00F0B48021EA045123EAF9
:102450006E035242C3EB6E0338BF5B1EDCF1200EED
:1024600025D322FA0CFE10EB0E0043FA0CFE41EBD2
:102470000E01CCF1200E03FA0EFE10EB0E00CCF193
:10248000200E51F1000129D401EB045112FA0EF291
:10249000BDE8104058BF7047401C1CBFB2F1004F50
:1024A000704700280CBF491C20F00100704712EB58
:1024B000020E43EB030218BF4FF0010E4EEA420238
:1024C000ACF1200CDCF11E0E56D943FA0CFE10EBD9
:1024D0000E00CCF11E0E51F1FF31D5D50EF1010EDB
:1024E00012FA0EFE404141EB010101EB445C5FEA50
:1024F0005C5C10D901EB045110EBDE7038BFBEF10B
:10250000004FBDE8104018BF704700280CBF491CA1
:1025100020F00100704734D24FEAD42C24F4006438
:1025200011F500111BD0B1FA81F20B3AA41AA41EC6
:10253000D2F12003914030FA03F31943904001EBAC
:10254000CC7101EB0451002CBDE81040A8BF7047CE
:1025500001F1C04101F000414FF000007047B0FAB6
:1025600080F310FA03F102D1BDE810407047E41A7D
:10257000173C4805C90AE2E701EB0451BDE81040E9
:10258000704749104FEA300001EB0451BDE810409C
:1025900002E04FF0000170474A0008BF0042F8D047
:1025A000B2F5001F28BF704701F000414FF0000056
:1025B00070479EEA445F07D011EA5E0FBDE8104005
:1025C00004BF002100207047BDE8104070B5FFF740
:1025D000BBFE00BF40DFF63E104683F0004170476F
:1025E0000000E0FF43004FEAD30C4FEA3C0C4340AD
:1025F0001FBF40070CF1605113F0FE4F70471CF0F5
:10260000006F03D10CF00041002070470CF0004334
:1026100043EA507040EACC0010B500F0F2F800BF79
:10262000000000924FEA0001FFF7DCBE4FF00041CE
:10263000A1F500214FF000007047000090EA010F63
:1026400048BF81F0004100F12E81421A3CBF801A40
:1026500089184FEAD052A2EBD1534FF07F4C1CEABD
:10266000410F18BF9CEA026F00F03B804FF0004C16
:102670004CEA00204CEA012121FA03FC10EB0C0C7F
:102680001ED202F1FF325FEA1C2040EBC25038BF7D
:1026900070471CF07F0F4FEA400C18BFBCF17F4F12
:1026A00038BF7047C3F12003994008BF20F00100F4
:1026B000BCF17F4F38BF7047A0F1C04000F0E7B8D1
:1026C0004FEA3C00000A40EBC25028BF1CF0FF0F4D
:1026D0004FEA400CE6D018BFBCF17F4F38BF7047BF
:1026E000EAE79CEA026F05D010EA5C0F08BF00F031
:1026F0000040704710B500F084F800BF64FBBE3E98
:102700004FF47F0C1CEAD0121EBF1CEAD11392EAD0
:102710000C0F93EA0C0F00F0478090EA010F48BFBE
:1027200042F480724FF0004C4CEA00204CEA012148
:1027300002EB0302A0FB0113A2F50002002918BF5F
:1027400043F001035B0028BF4FEA330342EB224210
:102750005FEA132C4CEBC2502EBFBCEB436FB2F5BB
:102760007C0F70474FEA036CBCF1004F08BF20F0AC
:102770000100B2F57C0F38BF70470BD582F0FF0225
:1027800012F5803FC8BF704700F1C040D8BF00F0CD
:102790000040704700F5000C5FEA4C0C48BF7047E2
:1027A000B0F1C04000F073B80CEAD11390EA010F09
:1027B00048BF42F48072624538BF634504D280EA64
:1027C000010000F00040704710B500F01AF800BF9B
:1027D0008900013E00F007B800F009B85FEA410C3B
:1027E0005FEA1C6C08D080EA010000F050B85FEA94
:1027F000400C5FEA1C6CF6D14FF00040A0F5800061
:1028000070470EF1020E2EF0030E5EF8044B2442C8
:1028100004D44FEA4102B2F17F4F11D84FEA40038E
:10282000B3F17F4F0CD80ED14FEAD07C0CEB4C0C9F
:102830000CF1020CB2F17F4F08BF4CEBD17C04E0ED
:102840004FF0080C01E04FEAD17C0CEB4C0324FA6A
:1028500003F404F00704B4F1040C06D20EEB840C6C
:10286000BDE810404CF0010C6047DFE80CF00708B1
:1028700002024FF00040A0F5800010BD0846420063
:1028800018BFD2F1807288BF00F0004010BDFF2158
:1028900041EAD050C005704790EA010F48BF81F06F
:1028A00000413FF5D2AE421A04D882F00042A0EBBC
:1028B000020011444FEAD052A2EBD1534FF07F4CAB
:1028C0001CEA410F18BF9CEA026F4AD04FF0004C3F
:1028D0004CEA00204CEA012121FA03FCB0EB0C0C7D
:1028E0000FD412F0FE0F36D05FEA4C001DD5001257
:1028F00040EBC25038BF70471CF03F0F18BF704705
:102900000BE05FEA1C20A2F1010240EBC25038BF8D
:1029100070471CF07F0F18BF7047C3F12003994028
:1029200014BF401E20F0010070474FEA12238008B8
:1029300008BF7047B0FA80FCA2EB0C02CCF1280C67
:1029400060FA0CF093EA122F04BF00EBC2507047FC
:102950004FEAC3707047130A5FEADC1008BF704784
:10296000F6E79CEA026F04D010EA5C0F08BF002073
:10297000704710B5FFF745FF40DFF63E81F000409D
:1029800070470CF00F03092B08BF082000F0598096
:102990000A2B0BD0082B18BF704708BF1CF0400F44
:1029A0000AD04FF000004FF0000170471CF0400FBC
:1029B00018BF4FF0004070471CF0100F08D000F017
:1029C0007F4220F0704342EAD3014FEA43707047E0
:1029D00000F0604021F07F4242EA000201F07F40B7
:1029E00040EA727070474FF0FF0C4CF4E06C1CEA48
:1029F00011531CBF9CEA030C9445C2BFDA4201EBA1
:102A000002517047002B0DD0BCF1000F0FD001F028
:102A10000041002AA4BF41F0E04141F07F614FF046
:102A20000000704701F000414FF00000704750EA8D
:102A300001334FF09B0C18BF4CF0806C7FF41CAA44
:102A400070471CF4801F11D01CF4E02F03D06FEAF4
:102A5000CC31490070474FF04050EFF3008222F034
:102A6000704242EA000282F3008870474FF0000093
:102A700070470000000000004C5555555555A53FC6
:102A80007751C1166CC156BF9015CB19A001FA3E03
:102A9000AD529C804F7E92BEC4B1B4BD9EEE213E2D
:102AA000D43888BEE9FAA8BD00004054FB21F93FA4
:102AB0003163621A61B4D03D0000601A61B4D03D48
:102AC0007370032E8A19A33B0000002E8A19A33BC2
:102AD000C14920259A837B390000000000000000D6
:102AE0006E83F9A22915444ED15727FCC0DD34F579
:102AF000999562DB4190433CAB6351FE61C5BBDEFF
:102B00003A6E24B7E0D24D42EA2E49061C92D10912
:102B10001CEB1DFE3EA729B1F53582E88444BB2E8F
:102B200026709CE9417E5FB439D69139F4395383DC
:102B30008B5F849C3B28F9BDFF97F81F0F9805DE3B
:102B40008B112FEF1F6D0A5ACF7E366DB709CB2739
:102B5000663F464F2DEA5F9EC7BA27757BF1E5EBCE
:102B6000F739073DEA92528AB15FFB6B085D8D1F12
:102B70004630035600000000A6F810111111813FE5
:102B8000D561C119A0012ABF7DFEB157E31DC73E23
:102B9000EB9C2B8AE6E55ABE7CD5CF5A3AD9E53D67
:102BA00000000000000000000102030406070809FD
:102BB00000000000010203040102020304050607ED
:102BC00008090A0B0C0D0E0F10100000F02B000866
:102BD000000000202000000050010008102C000818
:102BE00020000020F806000070010008000000002E
:102BF000010000001000000000127A000000000038
:102C000000000000000000000000807F00000000C5
:04000005080000ED02
:00000001FF
