:020000040800F2
:10000000980B002061020008B13A0008053400088E
:10001000AD3A0008D9150008394500080000000075
:10002000000000000000000000000000154500086E
:10003000DD15000800000000114500081945000802
:100040007B0200087B0200087B0200087B0200089C
:100050007B0200087B0200087B0200087B0200088C
:100060007B0200087B0200087B0200087B0200087C
:100070007B0200087B0200087B0200087B0200086C
:100080007B0200087B0200087B0200087B0200085C
:100090007B0200087B0200087B0200087B0200084C
:1000A000214500087B0200087B0200087B02000853
:1000B0002D4500087B0200087B0200087B02000837
:1000C0007B0200087B0200087B0200087B0200081C
:1000D0007B0200087B0200087B0200087B0200080C
:1000E0007B0200087B0200087B02000800F002F897
:1000F00000F0A6F814A696E8000CB244B344DA4522
:1001000001D100F09DF8BAE80F000FA696E8300084
:10011000A5EB040504EB0607AAEB0704A7F101070A
:100120004FEA15154FEA3414A4F10104AC4201D38F
:1001300000F086F813F0010F18BFFB1A43F001031B
:1001400000F001F8DBE71847C45C0000E45C000045
:10015000103A24BF78C878C1FAD8520724BF30C8F3
:1001600030C144BF04680C60704700007047000055
:100170000023002400250026103A28BF78C1FBD8B0
:10018000520728BF30C148BF0B6070476E2900F08E
:10019000E781702900F02983662905F00981652926
:1001A00005F00681672905F00381612905F00281C8
:1001B00003681B0A28BF41F08001692900F094817F
:1001C000642900F09181752900F08E816F2900F07B
:1001D000B782782900F0F582E92900F05182E429FC
:1001E00000F04E82F52900F04B82EF2900F0B48236
:1001F000F82900F0F4820368DB0928BF41F0800190
:10020000632901F02780732901F02C80E32901F094
:100210003780F32901F03C80002070471FB501F0C2
:1002200091F804000020002104F03AFE401C6060B8
:100230000020002104F01EFEE0601FBD10B510BDBF
:1002400001F052F81146FFF7E9FF04F077F901F0E9
:100250002FF903B4FFF7F2FF03BC01F033F90000FC
:100260000948804709480047FEE7FEE7FEE7FEE74A
:10027000FEE7FEE7FEE7FEE7FEE7FEE70448054986
:10028000054A064B704700001D450008ED000008B8
:1002900098050020980B0020980700209807002060
:1002A0001CB50C46064B7B4469460090204600F086
:1002B00070F904460020694600F07EF920461CBD16
:1002C0000F030000032A40F2308010F0030C00F00E
:1002D000158011F8013BBCF1020F624498BF11F880
:1002E00001CB00F8013B38BF11F8013BA2F1040239
:1002F00098BF00F801CB38BF00F8013B11F00303B1
:1003000000F04283083AC0F0088051F8043B083AF4
:1003100051F804CBA0E80810F5E7121D5CBF51F8B6
:10032000043B40F8043BAFF30080D20724BF11F830
:10033000013B11F801CB48BF11F8012B24BF00F895
:10034000013B00F801CB48BF00F8012B70474FF08C
:10035000000200B5134694469646203922BFA0E815
:100360000C50A0E80C50B1F12001BFF4F7AF090721
:1003700028BFA0E80C5048BF0CC05DF804EB890012
:1003800028BF40F8042B08BF704748BF20F8022B55
:1003900011F0804F18BF00F8012B70474FF0013C5F
:1003A00050F8042B51F8043B9A4221D1A2EB0C03E4
:1003B000934313EACC1317D150F8042B51F8043BA4
:1003C0009A4215D1A2EB0C03934313EACC130BD141
:1003D00050F8042B51F8043B9A4209D1A2EB0C03CC
:1003E000934313EACC13DBD04FF00000704700BFFB
:1003F000D01A01BAB1FA81F101F0180122FA01F024
:10040000CB40DBB2C0B2C01AC1F120012CFA01F31B
:10041000D11A914311EAC311E6D170477047704772
:10042000704770B5044685690068C10601D530265D
:1004300000E02026C00707D070BDD4E90121304676
:100440009047206A401C20626D1EF6D570BD70B5C5
:10045000044685690078C00707D170BDD4E9012141
:1004600020209047206A401C20626D1EF6D570BD8A
:1004700009684A0501D540B27047C905FCD500B2EC
:10048000704709684A0501D5C0B27047C905FCD557
:1004900080B2704770B50C460546012A05D0287811
:1004A000800600D5EA69002302E0012305E05B1C19
:1004B000934202D2E05C0028F9D1A869E618C01A7C
:1004C000A861286A184428622846FFF7AAFF04E0BA
:1004D000D5E9012114F8010B9047B442F8D328461E
:1004E000FFF7B5FF70BD00002DE9F041064600247E
:1004F00010687529314616A510D0FFF7B9FF0028FE
:1005000002DA404213A507E031688A0701D512A537
:1005100002E0490704D511A5012401E0FFF7B1FF6E
:1005200000210A2206F1240709E0B0FBF2FCB0FB2F
:10053000F2F302FB1C00303078541846491C0028A6
:10054000F3D123462A463046BDE8F04100F093BA85
:10055000000000002D0000002B0000002000000023
:1005600011680268006A530501D508700AE0D305D6
:1005700001D5088006E0130603D5C217C1E90002C1
:1005800000E008600120704701694A1C0261087898
:10059000704700B58FB0CDE90131002105910549C3
:1005A0007944CDE903101146684600F029F90FB0EF
:1005B00000BD0000E5FFFFFF0A6802F8010B0A60BA
:1005C000704700002DE9FF5F15468A460446DFF8B4
:1005D000AC80F8440027D8E900103E46CDE9001071
:1005E00010E03AF816106A4602A800F055FE411CC9
:1005F00007D02178890603D5E269391891420DD8D0
:100600000744761C2078800602D5E069B84205DDF3
:10061000AE42E6DB3AF816000028E2D1A069C01B22
:10062000A0612046FFF7FDFED8E90010CDE90010DB
:10063000002017E03AF818106A4602A800F02CFED5
:10064000B0F1FF3F81460BD000250DF1080B05E00E
:10065000D4E901211BF8050090476D1C4D45F7D3E7
:1006600008F10100B0428046E4DB206A3844206291
:100670002046FFF7ECFEBDE8FF9F0000E24D0000C2
:100680002DE9F0418046D21D22F007020025D2E973
:100690000002F52915A614D0011E72F1000106DA38
:1006A0000023D0EB030063EB020211A608E0D8F8A8
:1006B00000108B0701D50FA602E0490701D50EA651
:1006C00001251146002408F1240704E000F08EF90A
:1006D00030323A55641C50EA0102F7D12B463246BB
:1006E00021464046BDE8F04100F0C5B900000000D9
:1006F0002D0000002B0000002000000030B400217D
:1007000000F1240408E002F00705D208303542EA7F
:100710004372DB086554491C52EA0305F3D10468AF
:10072000002310A2250708D504F020040C4304D0B0
:10073000C46901230CA2641EC46130BC00F09BB9E3
:1007400010B5044621461068FFF79BFE024620467E
:10075000BDE810400023D1E7D21D22F00701D1E906
:100760000023CBE70000000030000000F0B40D468D
:100770000188090502D5214C7C4402E01F4C7C44D1
:100780000E34002100F1240608E002F00F071209E0
:10079000E75D42EA03721B097754491C52EA0307DA
:1007A000F3D102780023120704D5702D06D009B1C9
:1007B000022311342246F0BC00F05DB9012310344D
:1007C000F8E770B504460D4621461068FFF759FE5C
:1007D000024629462046BDE870400023C6E7D21DE8
:1007E00022F00703D3E90023C0E70368126843F04F
:1007F000200303600823C3610023B7E7444C0000D3
:100800002DE9F05F894604464FF0000ADFF874B125
:10081000FB44C0F820A02046E1688847002874D037
:10082000252806D0D4E901219047206A401C206287
:10083000F1E700265F462046E16888472028054604
:1008400007DB312D05D2781910F8200C08B10643CA
:10085000F1E7B00701D526F00406C4F81CA0002774
:10086000C4F818A02A2D09D0284604F0FBFA38B3A2
:1008700004EB8708303DC8F8185019E059F8041BFC
:10088000204604EB87029161E1688847012F054605
:1008900018D1E069002820DA26F020061DE0D8F8FB
:1008A000180000EB800005EB40003038C8F8180055
:1008B0002046E1688847054604F0D4FA0028EED1C6
:1008C000012F0AD02E2D08D12046E16888477F1CD1
:1008D0000546022F46F02006C4DBA069002803DA93
:1008E000404246F00106A061F00701D026F0100654
:1008F0006C2D0BD0682D09D04C2D39D06A2D35D0F8
:10090000742D35D07A2D33D016E038E0E1682F46CB
:1009100020468847B842054609D16C2F26D04FF4AF
:100920008060E168064320468847054604E06C2F56
:100930001AD04FF4807006430DB3A5F14100192879
:1009400002D8203546F400664A46294620462660ED
:100950004E46FFF71BFC80B101280BD0F61D26F098
:10096000070000F1080956E74020E4E78020D8E7B7
:100970000020D6E706F104094DE7284652E7206A31
:10098000BDE8F09FD44B000010B5203AC0F00B80BA
:10099000B1E81850A0E81850B1E81850A0E8185075
:1009A000203ABFF4F5AF5FEA027C24BFB1E81850EB
:1009B000A0E8185044BF18C918C0BDE810405FEA4D
:1009C000827C24BF51F8043B40F8043B08BF7047C9
:1009D000D20728BF31F8023B48BF11F8012B28BFCE
:1009E00020F8023B48BF00F8012B704730B5B0F14A
:1009F0000A0271F100034FEA900E4EEA817EB0EBDD
:100A00000E0061EB91014FEA101E4EEA017E10EBE1
:100A10000E0041EB11114FEA102E4EEA016E10EB61
:100A20000E0041EB11214FEA104E4EEA014E10EB41
:100A30000E0041EB1141401841F100014FEAD00096
:100A400040EA41704FEAD1014FEA810444EA9074D0
:100A500010EB800544EB01046D1944EB0404521BB8
:100A6000A3414FF0000348BF0A3200D530BD401CFF
:100A700041F1000130BD2DE9F0470D4699469246FF
:100A8000044600F124080168880604D5E06921F0D5
:100A90001001216000E00120A84201DD471B00E0B9
:100AA0000027A1697A1902EB0900081AA0612078D1
:100AB000C00602D42046FFF7B4FC002608E0D4E9C3
:100AC00001211AF806009047206A401C761C20621B
:100AD0004E45F4DB2078C0060AD52046FFF7A1FC7E
:100AE00006E0D4E9012130209047206A401C2062B2
:100AF000381EA7F10107F4DC07E0D4E9012118F85A
:100B000005009047206A401C2062281EA5F10105BF
:100B1000F3DC2046FFF79BFC2078000602D502207C
:100B2000BDE8F0870120FBE72DE9FF4F0C461E468C
:100B30004FF0FF378BB0D2E90001DDF860800A90FA
:100B40008A46C1F30A5505B93D46002108464FF0D3
:100B50000000BAF1000F00F4400005DA00EB80005D
:100B60004FF4400101EA50004FEA9059B9F1010FEA
:100B700000DDB9460A9850EA4A000ED044F61050FB
:100B8000A5F2FF3545432F14B8F1000F1ED0754272
:100B9000291E1EDDC9F100021CE0B8F1010F4FF063
:100BA000000001D0302103E0F24305E02154401C55
:100BB000B042FBDB30460022002121540B99C1F8E2
:100BC0000880C1E900200FB0BDE8F08FBD1B6D1C8F
:100BD000DEE74A4600DA694206A800F0F7FB06ABFA
:100BE00093E8070003AB83E8070050460A9903F037
:100BF0005DFD8DE80700A0F500501F3800900398B8
:100C0000002D0ADD42F21F014A460844002303A9D1
:100C10000390684603F0C6FF09E0A0F500504A467D
:100C20001F38002303A90390684603F0D0FF8DE826
:100C300007000004000C03D04FF0FF30410800E033
:100C40001046B8F1000F03D00022009215461EE0B6
:100C5000751E05D4FFF7CAFE303262556D1EF9D5F8
:100C6000B3460122084302D000227F1C04E0207812
:100C7000302801D100227F1E002A099784D01DE070
:100C8000112D07DAFFF7B2FE303262556D1C50EAC3
:100C90000102F5D1084302D00098C8B10EE000214E
:100CA000681E05E0235C625C63542254401E491CAC
:100CB0008142F7DBAB46A81B401E0990002004F8D8
:100CC0000B000B98099AC0F80880C0E9002B7AE75E
:100CD00011264FF0000857E72DE9F04F88460446EB
:100CE000D21D22F0070191B0D1E90001CDE90A013E
:100CF00004F0A4F802460B98C00F01D02D2007E0A5
:100D00002068810701D52B2002E0202101EAC000E4
:100D1000032A099001D0072A05DB034641462046F5
:100D200000F014FB0BE12078800601D5E06900E0BB
:100D30000620B8F1650F814606D0B8F1660F18D0CD
:100D4000B8F1670F70D131E00020B9F1110F0090B8
:100D500001DB112301E009F101030AAA01A90CA892
:100D6000FFF7E2FEDDE90C70002609F1010583467C
:100D700047E001204B4600904FF000470AAA01A926
:100D80000CA8FFF7D1FEDDE90DB00C995D460026F9
:100D900010B909F101000D18B9EB050003D4C0F139
:100DA000FF3609F10105A5EB09002BE0B9F1010FB0
:100DB00001DA4FF001090020B9F1110F0090484607
:100DC00001DD112300E003460AAA01A90CA8FFF7E0
:100DD000ABFEDDE90C704D46002683462078000707
:100DE0000AD4AB4500DA5D4601A8012D04DD4119A6
:100DF00011F8011C302907D04F4502DA17F1040F12
:100E000004DA012082460FE06D1EEEE7002F02DCBF
:100E1000ED1B3E4403E0781CA84200DD7D1CB81B9E
:100E200000F1010A4FF000472078000703D4AA45DB
:100E300001DB4FF0FF3A0021B7F1004F0DF14308FD
:100E40008DF8431024D002202B23002F01DA7F429B
:100E50002D230A21021EA0F1010000DC5FB197FBE7
:100E6000F1FC97FBF1F201FB1C7C17460CF1300CF6
:100E700008F801CDEEE7A8F101000370218809050B
:100E800001D5452100E06521A0F1010800F8011C11
:100E900009980FA9A1EB0807FF1D00B10120411916
:100EA00001EBEA70A1693844081A401EA06120785D
:100EB000C00602D42046FFF7B4FA099828B1D4E955
:100EC00001219047206A401C20622078C00622D56C
:100ED0002046FFF7A6FA1EE0002E04DBB34502DD34
:100EE00001A8805D00E03020D4E901219047206A0C
:100EF000401C2062761CAAF101005FEA000A0AD1B8
:100F000000F020FAC0680168405CD4E901219047F4
:100F1000206A401C2062281EA5F10105DCDC07E0E8
:100F2000D4E9012118F8010B9047206A401C206287
:100F3000381EA7F10107F3DC2046FFF788FA0320EB
:100F400011B041E62DE9F04F04460D46D21D22F0C6
:100F5000070089B0D0E900974846394603F06EFF94
:100F60000246F80F01D02D2307E02068810701D544
:100F70002B2302E0202101EAC0038DF820300BB1C1
:100F8000012000E00020032A824601D0072A04DB6A
:100F90002946204600F0DAF93FE12078800601D4A6
:100FA0000D2500E0E569C7F30A560D2D49DA002149
:100FB0004FEA175B08464FF00000002F00F4400096
:100FC00007DA00EB80004FF4400100EBD07001EA3B
:100FD00060008115012901DD4FF0FF3100224FEA49
:100FE000850CBCF1180F06D31346ACF118004FF076
:100FF0008052C24003E04FF4801323FA0CF30CF14B
:101000000C0CBCF1200F04D3ACF1200C09FA0CF04D
:1010100001E007FA0CF000294FF0004801DD18B993
:101020000FE00ED140450CD319EB02095F4121B905
:10103000404502D19F4329EA0209BBEB175F00D06C
:10104000761C2088000502D57B48784402E07A4867
:101050007844193808AA302302F80A30037C0AF1D0
:101060000101002E0AF1020A53546A4602DC4FF0D5
:10107000300101E04FF031014FF001088DF8001010
:1010800002D0A6F2FF3603E059EA470100D06B4ECA
:10109000002D02DC2178090704D54FF002082E212B
:1010A0008DF80110C44600210BE0C7F303433F0154
:1010B000C35C491C6D1E02F80830052908F10108BF
:1010C00001DA002DF1DC00210CE000EB1973491C62
:1010D0001B786D1E082902F808304FEA091908F13B
:1010E000010801DA002DF0DC21688B0602D516E03C
:1010F000A8F10108E04505DD02EB080313F8013C07
:10110000302BF5D0B8F1000F09DD02EB080313F81E
:10111000013C2E2B03D1090701D4A8F10108002DB1
:1011200005DD3E2102F808106D1E08F10108407C23
:10113000002E02F8080008F1010804DA2D2076429A
:1011400002F8080002E02B2002F808000A214FF400
:101150007A70864208F101080BDB96FBF0F330331E
:1011600002F8083096FBF0F308F1010800FB136663
:1011700001E0642E0CDB642096FBF0F3303302F8C0
:10118000083096FBF0F308F1010800FB136601E05C
:101190000A2E06DB96FBF1F0303002F8080008F169
:1011A000010896FBF1F001FB1060303002F80800F6
:1011B000A16908F1010808EB050202EB0A00081A10
:1011C000A0612078C00602D42046FFF72AF9216AE0
:1011D00008AE01EB0A00206204E0D4E9012116F810
:1011E000010B9047BAF1010AF7D22078C00602D568
:1011F0002046FFF716F96E4609E016F8010B3E2867
:101200000FD0D4E901219047206A401C2062B8F138
:101210000108F2D22046FFF71AF909B00320BDE811
:10122000F08F206A2844206203E0D4E901213020B5
:1012300090476D1EEBD3F8E7BE43000002FCFFFFB2
:1012400010B5436913B1AFF3008001E0FFF722F955
:10125000012010BD127800F124010A7000224A70AA
:101260000122EDE711684FF0FF32E9E710B543695D
:1012700013B1AFF3008001E0FFF7A4F9012010BD26
:10128000128800F1240182840022C2840122EDE749
:1012900011684FF0FF32E9E72DE9F04116460C46A0
:1012A000054600F047F8036893F80101012807D0CC
:1012B000FF2C12D8185D80B101202C70BDE8F081A0
:1012C000D3F807013246214603F20713C718284610
:1012D000BC46BDE8F041002360474FF0FF30EDE72A
:1012E00000487047100000207546FFF7F9FFAE4632
:1012F00005006946534620F00700854618B020B522
:10130000FEF7BCFFBDE820404FF000064FF000079D
:101310004FF000084FF0000BAC46ACE8C009ACE859
:10132000C009ACE8C009ACE8C00921F007018D464E
:101330007047000010B500F005F8001D10BD00BF9B
:10134000613B000000487047300000202DE9F0416B
:101350001F46044603260168072A01F4006004DBE7
:1013600008B116A505E016A503E008B115A500E033
:1013700015A521F010002060A069C01EA0610FB16A
:10138000401EA0612046FFF74CF84FB1D4E901217F
:1013900038469047206A401C2062C01C206206E04C
:1013A000206AFAE7D4E9012115F8010B9047761E6F
:1013B000F8D22046FFF74BF8BDE8F0814E414E00D1
:1013C0006E616E00494E4600696E66002DE9F04779
:1013D000814616468AB0354878440DC88DE80D0020
:1013E00032487844801C03AC0DC884E80D0041F6F7
:1013F0009B300844372190FBF1F290FBF1F5A5F109
:10140000800501FB12041B3C02D56442012000E070
:101410000020DFF898A080460027FA44AAF1BE0A0F
:101420000EE0E0070AD03246684607EB4701012389
:101430000AEB810103F0CBFB8DE8070064107F1CF1
:10144000002CEED1194F7F44AE3F19E0E80715D0CC
:1014500007EB04100DF1180A90E80E008AE80E0060
:10146000C068F04201D1981908903246012306A9BC
:1014700003A803F0ACFB03AB83E807006D10641C0A
:10148000002DE3D14FF0010332466946B8F1000F59
:1014900003A802D003F086FB01E003F098FBC9E942
:1014A0000001C9F808200AB0BDE8F087C04000007C
:1014B00010B50446AFF300802046BDE81040FEF7AB
:1014C000C8BE000001491820ABBEFEE7260002009E
:1014D00070470000B0B5044600688168C90709D0AC
:1014E000816821F00101816000F054FD2168896864
:1014F000C90701D10020B0BD054602E08068C007E1
:10150000F8D000F047FD411B20680329F6D381681D
:10151000C907F3D0A06A40F01000A062E06A40F072
:101520000100E0620120B0BDB0B582B004460020E9
:10153000019021688A68D2074BD1886840F0010089
:10154000886040F20800C2F2000000684DF6836136
:10155000C4F21B31A0FB0101880C01900198A0B1DD
:10156000019801380190019878B1019801380190F3
:10157000019850B1019801380190019828B1019863
:101580000138019001980028EAD100F003FD21689C
:101590008968C9071CD1054603E000BF8068C00701
:1015A00016D100F0F7FC411B20680329F6D38168AF
:1015B000C907F3D1A06A40F01000A062E06A40F0D1
:1015C0000100E062002084F82400012002B0B0BDD8
:1015D000002002B0B0BD0000FEE700007047000030
:1015E000EFF3108072B600BFFEE7000070B582B066
:1015F00004460020019094F82400012802D1022022
:1016000002B070BD012084F824002046FFF762FF7D
:101610002046FFF789FF28B1002184F8241002B08A
:1016200070BD00BF0646A06A41F202118843023035
:10163000A06240F20800C2F200000568022000F03B
:1016400047FFB5FBF0F0400001900198A8B100BF42
:10165000019801380190019878B101980138019002
:10166000019850B1019801380190019828B1019872
:101670000138019001980028EAD12068816841F082
:101680000801816000F086FC21688A6812070FD487
:10169000886840F00400886000F07CFC216889685C
:1016A000490715D401216FF00302304622E000BF44
:1016B000054602E088680007EAD500F06BFC401B95
:1016C00021680B28F6D388680007F3D50EE000BF29
:1016D000054602E080684007E4D500F05BFC411B52
:1016E00020680B29F6D381684907F3D50120102122
:1016F0006FF01202A36A1A401143A162002184F81C
:10170000241002B070BD000070B581B000220092BC
:1017100090F82420012A03D10221084601B070BDAF
:101720004A680123062A02EB820E80F8243007D88B
:10173000D0F800C06FF004030CF134060CE000BFD9
:10174000D0F800C00C2A87BF0CF12C066FF04003C4
:101750000CF130066FF022030EEB03021F233468F6
:1017600003FA02F50B6824EA050503FA02F22A439C
:101770003260092B03EB43021AD9DCF80C601E3AE5
:10178000072589689540AE43914023F0010231431B
:10179000102ACCF80C1015D142F20041C4F201011C
:1017A0008C4517D0816A41F02001816201210AE055
:1017B000DCF81030072689689640B34391401943FE
:1017C000CCF810100021002280F82420084601B037
:1017D00070BD00BF89680902F4D4DCF80810102B32
:1017E00041F40001CCF80810ECD140F20801C2F23B
:1017F000000109684DF68362C4F21B32A1FB02129C
:10180000910C01EB81014900009100990029D9D088
:1018100000990139009100990029D3D0009901392C
:10182000009100990029CDD00099013900910099CB
:101830000029C7D0009901390091009900294FF083
:101840000001E5D1BFE700000068C06C70470000F0
:10185000002804BF01207047B0B50446806A28B153
:1018600021688868C0070CD115E000BF0020E06245
:1018700084F82400204600F097F821688868C007A3
:1018800009D0886820F00100886000F083FB21689F
:101890008A68D20726D1A06AC0063AD4A06A41F26B
:1018A000021290430230A062E069D4E9013240EABA
:1018B000030C531EB3FA83F35D091346B2F5807F20
:1018C00018BF2B02207D257B01284CEA45002CD136
:1018D00035B3A56A45F02005A562E56A45F0010526
:1018E000E56222E0054602E08868C007D3D000F038
:1018F00051FB401B21680328F6D38868C007F3D04A
:10190000A06A40F01000A062E06A40F00100E062CE
:10191000A06AA06A40F01000A0620120B0BD00BF24
:10192000A56903EB4533A3F5C0534D68B2F5807F3D
:1019300025F4694543EA05034B608B684FF2FD755A
:10194000CFF6E17503EA050343EA00038B6001D09B
:10195000012A07D122690023CFF6F07303EB02526C
:1019600001E000BF0022CB6A23F470031A43CA626D
:10197000896840F6FE62CFF61F721140814207D19E
:101980000020E062A16A012262F30101A162B0BD00
:10199000A06A40F0100020F00200A062E06A40F06F
:1019A0000100E0620120B0BD80B586B0014640F67E
:1019B0000000C4F20100096800F5E05291424FF0C6
:1019C0000001CDE90411CDE9021101D006B080BDBE
:1019D00041F21801C4F202010A6842F400720A607E
:1019E0000A6802F400720192019A0A6842F0040245
:1019F0000A60096801F0040101910199082102912E
:101A00000321039102A900F0B7F906B080BD0000E0
:101A10002DE9F04182B000270D460446019700F001
:101A2000B9FA21688A68D20544D406464868C005D8
:101A300003D4C86A10F4700F46D040F20800C2F216
:101A40000000076842F292480220C1F2492800F0E3
:101A50003FFD216844F624130A69B7FBF0F0C2F297
:101A600092431A4206D1CA6844F62413C0F2920384
:101A70001A425BD00A6912EA080F07D1CA6842F21B
:101A80009243C0F249031A4200F0C0800A6949F249
:101A90004923C0F224031A424FF0FC0254D1CF680C
:101AA0001F4208BF5422019B02FB00F7BB4250D3E8
:101AB000C3E000BFA06A40F02000A06284F8247058
:101AC000012002B0BDE8F0810868800700F1B58010
:101AD000681C00F0A880FDB90868800770D5086808
:101AE000800700F1AA800868800769D50868800728
:101AF00000F1A3800868800762D50868800700F1BC
:101B00009C80086880075BD508688007E4D594E06E
:101B10000868800700F1918000F03CFA801B216882
:101B2000A842F5D908688007F2D449E00A6912EAA8
:101B3000080F4FF0290207D1CB6842F29247C0F25A
:101B400049073B4208BF1422019B02FB00F7BB423E
:101B500073D2681C52D05DBB0198B84230D3019853
:101B6000013001900198B84267D20198B84227D35A
:101B70000198013001900198B8425ED20198B842B4
:101B80001ED30198013001900198B84255D20198B6
:101B9000B84215D30198013001900198B842DBD3C7
:101BA0004BE000BF0198013001900198B84235D256
:101BB00000F0F0F9801BA842F4D90198B842F1D2A4
:101BC000A06A40F00400A062002084F824000320F2
:101BD00002B0BDE8F08100BF01980130019001988A
:101BE000B8422AD20198013001900198B84224D21B
:101BF0000198013001900198B8421ED2019801303D
:101C000001900198B842E7D317E000BF5422019B2E
:101C100002FB00F7BB429CD30FE000BF21680CE041
:101C20000868800709D40868800706D40868800718
:101C30005CBF08685FEA8070F2D56FF01200086040
:101C4000A06A40F40070A062886800F46020B0F5DB
:101C5000602F01D1207B18B1002002B0BDE8F081D7
:101C6000A06A20F48070A062A06AC004F4D4A06AC4
:101C700040F00100A062002002B0BDE8F081000049
:101C800010B5044690F82400012804BF022010BDBE
:101C9000012084F824002046FFF746FC20B10020F4
:101CA00084F82400012010BD42F2044C2068A16A8F
:101CB000C4F2010C40F2013291430CF57F7201F540
:101CC00080719042A16229D0A16A21F48011A162A1
:101CD0004168490504D5A16A012363F30D31A1626E
:101CE000A16A0023C9044FF0000144BFE16A21F05A
:101CF0000601E1626FF0020184F82430016081681E
:101D000001F46021B1F5602F1BD1904214D081689D
:101D100041F4A0018160002010BD00BFDCF800107C
:101D200011F4702FD0D0A16A41F48011A162DCF8C7
:101D300000104905CFD4D3E7DCF8001011F4702F60
:101D4000E5D0816841F480118160002010BD000061
:101D5000B0B5044600F01EF9054640F20000C2F29C
:101D600000000078611C18BF044400BF00F012F9A5
:101D7000401BA042FAD3B0BD2DE9F04F82B00E68EF
:101D8000002E00F0FD8041F20042C4F20102042363
:101D900040F2004E904208BF03234FF6FF7CC4F28E
:101DA000010E009300240123C1F2100C4FF0000A31
:101DB0004FF000094BE000BF41F20002C4F2010203
:101DC000009F904208BF022704F00C030F229A40A4
:101DD0002BEA020207FA03F34FEA9A051A4346F880
:101DE00025204E6840F20C45F202DEF8082054BF70
:101DF00022EA080242EA0802C4F20105CEF80820ED
:101E00002A68B30254BF22EA080242EA08022A60A2
:101E1000B303DEF8042054BF22EA080242EA0802B3
:101E2000F303CEF80420DEF800204FF0010354BF86
:101E300022EA080242EA0802CEF800200E680AF1FF
:101E4000010A36FA0AF204F1040400F0998003FA58
:101E50000AFB16EA0B08F1D04E68664512DC122E1A
:101E600056D8DFE806F0350B4D49555555555555B3
:101E70005555555555555545510000BFD1F80C9055
:101E800046E000BF4FF6FF72C1F2210296420FDC1E
:101E90000022C1F2110296421AD00022C1F21202AF
:101EA000964215D00022C1F22102964210D02FE0B6
:101EB0000022C1F2220296420AD00022C1F231026F
:101EC000964205D00022C1F23202964220D100BFD4
:101ED0008A684AB1012A14BFC0F814B0C0F810B023
:101EE0004FF0080914E000BF4FF0040910E000BFF4
:101EF000CA6802F104090BE04FF0000908E000BFD6
:101F0000CA6802F1080903E0CA6802F10C0900BFBF
:101F100002462646B8F5807F24BF0432203E17686B
:101F20000F25B54027EA050509FA06F63543156081
:101F3000CA79D2067FF582AF41F21803C4F20203D8
:101F40001A68AEF57E7642F001021A601A6802F055
:101F500001020192019A2AF0030256F802B040F6FB
:101F60000002C4F20102904208D040F60042C4F2DE
:101F7000010290427FF420AF012725E7002723E7E5
:101F800002B0BDE8F08F0000002A08BF090401611B
:101F90007047000040F29050C2F2000000687047A5
:101FA000002804BF01207047F0B581B0044690F8C6
:101FB0003D0028B9002084F83C00204600F090F94C
:101FC000242084F83D002068016821F001010160AF
:101FD000016841F400410160016821F400410160A1
:101FE00000F052FC636848F2A16CC0F2010C40F6AC
:101FF0000011C0F23D0163453CBF48F28041C0F290
:102000001E01884202D2012001B0F0BD4DF683616D
:10201000C4F21B31A0FB01122168970CD1F804E037
:102020004FF496762EF03F0545EA92454D60774392
:1020300048F638160D6AC0F24106A7FB067625F071
:102040003F07634538BF960C721C3A430A62CA695F
:1020500048F2A0664CF6FF77C0F20106B34222EACE
:1020600007020BD801385B00B0FBF3F001306FF3CF
:102070001F30042898BF04201BE000BFA768013868
:1020800057B119277B43B0FBF3F001306FF31F30DA
:1020900070B100F5804007E003EB4303B0FBF3F0C1
:1020A00001306FF31F3018B100F5004001E000BFB0
:1020B00001201043C8610868D4E9072320F0C0005C
:1020C000104318430860886848F2FF3204F10C0797
:1020D00090438CCF18431043A6698860C86820F0ED
:1020E000FF0038433043C860086840F001000860D2
:1020F00000202021206484F83D10206384F83E00F5
:1021000001B0F0BD2DE9F04383B01E461746894665
:102110000446FFF73FFF94F83D10202924D10546DF
:10212000206800BF816989071AD5FFF733FF411B7B
:1021300020681A29F6D381698907F3D50020202168
:10214000206384F83D1084F83E00216C41F02001AA
:10215000216484F83C00022003B0BDE8F08300BF96
:1021600094F83C10012903D1022003B0BDE8F083AC
:10217000012184F83C100168C90703D1016841F0CE
:1021800001010160016840F2020821F40061016070
:10219000212184F83D10102184F83E100021216493
:1021A00067626685618DC0F201082185A8F1021180
:1021B000E162E16A0A9E11F5803F18BF01291DD135
:1021C000016841F48071016020464FF00111002246
:1021D0003346009501F076F950B120680068C005DB
:1021E00044BF4FF400702064012003B0BDE8F083C9
:1021F0002069B0F5804F07D1FE2015E00829DFD017
:10220000216B1229DCD0DFE7062000EAD910216813
:10221000F030086108F10601204632462B4601F0F5
:1022200037FA0028E0D1FF20216800EA09000861A0
:102230002046414632462B4601F02AFA0028D3D1E7
:102240000020029020684169029180690290029802
:1022500006E000BF204631462A4601F0D5F818BBFB
:10226000208D68B3204631462A4601F07DFAD8B960
:10227000606A2168024612F8013B0B616262628D5E
:10228000013A6285228D531E23854F697F07E1D570
:102290001B04DFD0437802300B616062608D01382F
:1022A0006085901E2085D5E7206C04289CD120688D
:1022B000016841F400710160012003B0BDE8F083C2
:1022C0002068016841F400710160202084F83D001D
:1022D000002084F83E0084F83C0003B0BDE8F083A1
:1022E00010B586B0006845F20041C4F20001884292
:1022F0004FF00000CDE90400CDE9020002D006B0A5
:1023000010BD00BF41F21804C4F20204206802A903
:1023100040F008002060206800F00800019001985B
:102320004FF440700290122003900320059040F675
:102330000040C4F20100FFF71FFD0420C4F20100B9
:10234000016841F0E06141F002010160606840F421
:1023500000106060606800F400100190019806B001
:1023600010BD000040F2000040F29051C2F20000A7
:10237000C2F2000100780A6810440860704700004B
:1023800080B542F20000C4F20200016841F0100181
:102390000160032000F08CF80F2000F005F800F039
:1023A00027F8002080BD000070B540F20006C2F2A0
:1023B000000640F208013278C2F200014FF47A734D
:1023C0000968B3FBF2F20446B1FBF2F1084600F0F3
:1023D00083FC0F2C4FF0010508D838B94FF0FF30BF
:1023E00021460022002500F037F87460284670BDB1
:1023F00082B041F21800C4F202000168022241F0EA
:1024000001010160016801F0010101910199416838
:1024100041F080514160406800F080500090009889
:102420000420C4F20100016862F31A61016002B085
:1024300070470000002848BF704700F01F010122CC
:1024400002FA01F11C2202EAD0004EF20012CEF292
:10245000000281507047000010B54EF60C5CCEF2C1
:10246000000CDCF80030C3F3022E8EF00704042CBD
:1024700028BF0424BEF103034FF0FF3E0EFA04F41C
:1024800038BF0023A14399400EFA03F39A43114346
:1024900000F00F0200F160430901043A03F56443C0
:1024A0006244002848BF02F10C03197010BD0000FF
:1024B0004EF60C51CEF200010A684FF6FF031A40A7
:1024C00060F30A2242F0806040F0FD7008607047BF
:1024D000012821D002280DD0102808D141F2040192
:1024E000C4F202010A6851F8040CC00134D400207F
:1024F000704700BF80B500F0DBF941F20401C4F27F
:10250000020109680222C1F3813102EB4101B0FBF3
:10251000F1F0BDE88040704741F20400C4F20200CF
:10252000C16940F202320A40B2F5817F04BF4FF424
:102530000040704701F44071B1F5407F18D0B1F50B
:10254000007F1CBF00207047006A49F640418007A9
:1025500001EAE070704700BFC2F3834015A3185C26
:10256000D2030DD440F60012C0F23D02504313E0F6
:1025700050F8040C4FF22441800301EAE0707047E8
:102580000A6810A3C2F340429A5C41F20023C0F2F1
:102590007A03B3FBF2F250430968490248BF70471F
:1025A0004AF6AB214000CAF6AA21A0FB0101480867
:1025B000704700BF02030405060708090A0B0C0D4B
:1025C0000E0F1010010200002DE9F04182B0044608
:1025D000007841F21C06C007C4F202064AD03068F7
:1025E0005FEAC00808D4306840F08050306030683E
:1025F00000F080500190019847F20007C4F20007F4
:102600003868C00512D4386840F480703860FFF72D
:10261000C1FC05463868C00508D4FFF7BBFC401B69
:102620006428F7D9032002B0BDE8F081706810F487
:10263000407012D0616801F4407188420DD070681A
:1026400040F24042C4F24222012320F44071136060
:102650000023C0071360716026D17068616820F4A0
:1026600040700843B8F1000F706003D4306820F068
:10267000805030602068810707D556F8181CA26882
:1026800021F44041114346F8181CC00607D556F8FE
:10269000180CE16820F48000084346F8180C00206C
:1026A00002B0BDE8F08100BFFFF774FC054641F2BF
:1026B000883700BF70688007CFD4FFF76BFC401BE2
:1026C000B8424FF00300F5D9EAE70000002804BF44
:1026D000012070472DE9F04381B042F20008C4F2B6
:1026E00002080446D8F800000D4600F007008142B9
:1026F0000CD9D8F8000020F007002843C8F80000E3
:10270000D8F8000000F00700A8426CD1206841F220
:1027100004098107C4F2020917D5410705D5D9F884
:10272000001041F4E061C9F80010010705D5D9F89F
:10273000001041F46051C9F80010D9F80010A268E7
:1027400021F0F0011143C9F80010C00742D1D8F8B8
:10275000000000F0070085420CD2D8F8000020F0FD
:1027600007002843C8F80000D8F8000000F0070070
:10277000A84238D12068410707D5D9F80010E2688F
:1027800021F4E0611143C9F80010000708D5D9F819
:102790000000216920F4605040EAC100C9F800003F
:1027A000D9F8002002F00C00082841F20020C0F205
:1027B0007A004DD145F6FB53C2F38341C0F60003C6
:1027C000595CD20338D440F60010C0F23D004843B3
:1027D0003EE000BF606859F8041C022808D00128B8
:1027E00026D1890306D4012001B0BDE8F08300BFE3
:1027F0008901F8D5D9F8001021F003010843C9F880
:102800000000FFF7C7FB064641F28837D9F8000001
:10281000616800F00C00B0EB810F98D0FFF7BAFBB5
:10282000801BB842F2D9032001B0BDE8F08300BF9D
:102830008907D8D5DEE700BFD9F8002045F2CC43A0
:10284000C2F34042C0F600039A5C4843B0FBF2F08A
:10285000D9F8001045F2B442C1F30311C0F60002EA
:10286000515C40F2080220FA01F140F20400C2F289
:1028700000000068C2F200021160FFF795FD002021
:1028800001B0BDE8F083000040F2080041F204010D
:10289000C2F20000C4F202010068096845F2C442B5
:1028A000C1F30221C0F60002515CC840704700002D
:1028B00040F2080041F20401C2F20000C4F2020139
:1028C0000068096845F2C442C1F3C221C0F60002A3
:1028D000515CC84070470000002804BF01207047C9
:1028E0002DE9F04182B00446007841F20006C007AD
:1028F000C4F202060CD0706800F00C00042840F00E
:1029000081803068800303D56068002800F046812C
:10291000207880071BD5706810F00C0F09D0706804
:1029200000F00C00082840F087807068C00300F1B8
:1029300083803068800703D52069012840F02E810C
:102940003068616920F0F80040EAC100306020780A
:10295000000713D4207840072CD4E569002D00F03F
:102960001881706800F00C00082840F0A780012D45
:1029700040F00481012002B0BDE8F081A069002888
:1029800000F084800020C4F242200121C0F88014AD
:10299000FFF700FB054600BF706A800700F1B280B8
:1029A000FFF7F8FA401B0228F6D9032002B0BDE871
:1029B000F08100BFF0695FEAC00808D4F06940F018
:1029C0008050F061F06900F080500090009847F26C
:1029D0000007C4F200073868C00549D4386840F4DD
:1029E00080703860FFF7D6FA054600BF3868C0052A
:1029F0003ED4FFF7CFFA401B6428F7D9032002B07A
:102A0000BDE8F081706800F00C00082803D1706800
:102A1000C0033FF576AF61683068002900F00C8193
:102A2000B1F5A02F00F00081B1F5803F40F01A8190
:102A300040F480301CE100BF2069002840F2000013
:102A4000C4F2422000F0888001210160FFF7A2FA61
:102A5000054600BF306880073FF572AFFFF79AFA6E
:102A6000401B0228F6D9032002B0BDE8F08100BF68
:102A7000E168306A002900F09D80052900F092800D
:102A8000012940F0AF8040F00100B1E00020C4F225
:102A900042200021C0F88014FFF77CFA054600BFF1
:102AA000706A80077FF556AFFFF774FA401B022863
:102AB000F6D9032002B0BDE8F08100BF0027C4F2C0
:102AC000422700203866FFF765FA022D05460DD132
:102AD0003068800140F1DE80FFF75CFA401B02287D
:102AE0004FF00300F4D902B0BDE8F08130688001F6
:102AF0004FD5FFF74FFA401B02284FF00300F5D9DE
:102B0000F1E700BF40F20800C2F20000006844F69E
:102B1000D351C1F26201A0FB0101480A019000BF3C
:102B200000BF0198411E002801913FF413AF00BF80
:102B30000198411E002801913FF40CAF00BF01989D
:102B4000411E002801913FF405AF00BF0198411ECE
:102B500000280191E4D1FDE600210160FFF71AFA97
:102B6000054600BF306880077FF5F1AEFFF712FA27
:102B7000401B02284FF00300F4D9B4E77068216AC3
:102B800000F480328A4209D1616A00F470108842F0
:102B900004D1002002B0BDE8F08100BF012002B0E6
:102BA000BDE8F08140F004003062306A40F001007E
:102BB0001EE000BF20F001003062306A20F0040007
:102BC0003062FFF7E7F9054641F28837306A80073F
:102BD00020D5FFF7DFF9401BB8424FF00300F5D9CD
:102BE00081E700BF20F001003062306A20F004006D
:102BF0003062FFF7CFF9054641F28837306A800727
:102C000008D4FFF7C7F9401BB842F7D9032002B038
:102C1000BDE8F081B8F1000F3FF59FAEF06920F0FC
:102C20008050F06199E600BF40F480203060306849
:102C300040F480301CE000BF20F480303060306809
:102C400020F480203060FFF7A5F905463068800346
:102C50007FF55EAEFFF79EF9401B64284FF003003E
:102C6000F4D940E720F480303060306820F48020D0
:102C70003060FFF78FF90546306880033FF548AEB6
:102C8000FFF788F9401B6428F6D9032002B0BDE89D
:102C9000F08100BF206AB0F5803F05D17168A2685D
:102CA00021F40031114371607168626A21F474117A
:102CB00011430843706001203866FFF76BF9044642
:102CC000306880013FF565AFFFF764F9001B02280B
:102CD0004FF00300F4D906E7411E0020B0EB116F5E
:102CE0001CBF012070474EF21002CEF2000251606C
:102CF0004EF62351CEF20001F0230B7007219060B5
:102D000011607047704700007047000090F83C2049
:102D1000012A4FF0020236D010B580F83D2002683B
:102D2000D2F804E0D2F808C00C682EF070032343F8
:102D300040F2FF74C4F20004A24253600ADCB2F114
:102D4000804F13D040F20043C4F200039A420DD0EA
:102D500011E000BF42F60043C4F201039A4205D0DD
:102D600040F60003C4F200039A4204D149682CF0F3
:102D70008003194391600121002280F83D1080F802
:102D80003C20BDE81040104670470000002804BFFA
:102D9000012070472DE9F04F81B090F83D2042B9F5
:102DA000002280F83C2004460D4600F09DF829469C
:102DB0002046022280F83D20026844F2070593680D
:102DC00042F6004CAB43936040F2FF731468C4F2C8
:102DD00000039A42C4F2010C14DCB2F1804F19D006
:102DE00040F20045C4F20005AA4213D09A4217DC13
:102DF000B2F1804F1CD040F20043C4F200039A426B
:102E000016D01AE0624505D040F60005C4F2000570
:102E1000AA42EBD1856824F070042C439A42E7DD86
:102E2000624505D040F60003C4F200039A4204D183
:102E3000036924F4407543EA050424F0800384699F
:102E4000D0F804E0C568234362451360D562C2F838
:102E500028E002D14369CCF830304FF0010EC2F8BF
:102E600014E01569ED0703D0156925F0010515611A
:102E700095689469D2F820C0D1E90038D1E9027B85
:102E800043EA050A8D694FF6FF7924EA090447EA07
:102E900005254FF6FC47BD43D1E9077644EA0B040C
:102EA0000B692C4344EA07242CF02207496944EAC1
:102EB000031347EA080743EA063347EA0111C2F859
:102EC00008A09361116280F846E080F83EE080F847
:102ED0003FE080F842E080F843E080F83DE00020E9
:102EE00001B0BDE8F08F000080B586B0014640F625
:102EF0000000C4F20100096800F510530022994255
:102F00000592CDE90322029202D006B080BD00BF37
:102F100041F21801C4F202010B6843F400630B6034
:102F20000B6803F400630193019B0B6843F00403F7
:102F30000B60096801F00401019101994FF440719F
:102F4000CDE9021202A90492FEF716FF1820002113
:102F50000022FFF781FA1820FFF76CFA06B080BD57
:102F60007047000070B504460068C5680669B1077F
:102F700016D515F0020113D06FF002010161012195
:102F800021778069800703D02046FFF7E9FF05E03D
:102F9000204600F08FF8204600F02EFA002020771F
:102FA000700719D515F0040016D020686FF00401E1
:102FB000016102212177806910F4407F04D020460E
:102FC000FFF7CEFF06E000BF204600F073F8204672
:102FD00000F012FA00202077300717D515F008000E
:102FE00014D020686FF00801016104212177C069C5
:102FF000800703D02046FFF7B3FF05E0204600F02E
:1030000059F8204600F0F8F900202077F00619D58D
:1030100015F0100016D020686FF010010161082132
:103020002177C06910F4407F04D02046FFF798FF55
:1030300006E000BF204600F03DF8204600F0DCF935
:1030400000202077F00718BF15F0010002D13006EC
:1030500009D412E020686FF001010161204600F000
:10306000CDF9300609D515F0800006D020686FF044
:10307000800101612046FFF745FE700609D515F075
:10308000400006D020686FF040010161204600F04A
:10309000B7F9B00658BF70BD15F0200008D0216800
:1030A0006FF0200220460A61BDE87040FFF72CBE99
:1030B00070BD00007047000090F83C30012B04BF49
:1030C000022070474FEAB202032A00F2F1802DE994
:1030D000F043DFE802F003A53B7500BF036842F64A
:1030E00000461D6A1A6AC4F2010622F001021A6241
:1030F0001A465C6852F818CFB3428E68D1F800E0E7
:1031000025F0020545EA06050CD1CE68D1E905781F
:1031100024F4407425F00C0526F004063C433543A6
:1031200044EA08042CF0730747EA0E075C609F61CD
:103130004F6809695F631D629F6947F008079F61D7
:103140009F6927F004079F61A6E000BF036842F66D
:1031500000461D6A1A6AC4F2010622F480721A62DD
:103160001A46D3F804C052F81CEFB3428E680C68BC
:1031700025F4007545EA06250FD1CE68D1E90598FA
:10318000360240F2FF4725F44065BE4335432CF438
:10319000405748EA090647EA061C2EF07307274302
:1031A000C3F804C0DF614F680969DF631D62DF692E
:1031B00047F00807DF61DF6927F00407DF616BE094
:1031C000036842F60047D3F820C01A6AC4F2010728
:1031D00022F480521A621A465C6852F81C5FD1F8D9
:1031E00000E08E68BB4204D14F6924F4804444EA75
:1031F00087142CF4005747EA063725F4E64646EADA
:103200000E265C60DE614E6809691E641F62DF691C
:1032100047F40067DF61DF6927F48067DF613AE028
:10322000036842F600461D6A1A6AC4F2010622F0DB
:1032300010021A621A46D3F804C052F8184FB3426B
:103240008E68D1F800E025F0200545EA06150FD17B
:10325000CE68D1E905986FF0400725F0C00507EA70
:10326000061635432CF4406748EA090647EA860CFF
:1032700024F4E64444EA0E27C3F804C09F614F6873
:1032800009699F631D629F6947F400679F619F6999
:1032900027F480679F6109021368194311600021B8
:1032A000BDE8F043002280F83C200846704700BF8C
:1032B0000121002280F83C2008467047002804BF06
:1032C0000120704710B590F83D1031B9002180F809
:1032D0003C10044600F070F82046022180F83D10B2
:1032E000016840F2FF740B68C4F2000442F6004C1F
:1032F000A142C4F2010C15DCB1F1804F1AD040F2AA
:103300000042C4F20002914214D0A14218DCB1F193
:10331000804F1DD040F20042C4F20002914217D00B
:103320001AE000BF614505D040F60002C4F2000279
:103330009142EAD1826823F070031343A142E6DD93
:10334000614505D040F60002C4F20002914203D16B
:10335000026923F440731343846923F08002D0F898
:1033600004E0C368224361450A60CB62C1F828E0EB
:1033700002D14269CCF8302001224A610B69DB0797
:1033800003D00B6923F001030B6180F8462080F81D
:103390003E2080F83F2080F8402080F8412080F8CF
:1033A000422080F8432080F8442080F8452080F8AF
:1033B0003D20002010BD00000068B0F1804F18BF14
:1033C000704780B582B041F21C00C4F2020001686F
:1033D000002241F0010101600068002100F00100BD
:1033E000019001981C20FFF737F81C2002B0BDE8BF
:1033F0008040FFF71FB800007047000070470000D2
:1034000070470000FEE7000070B50368044653F8FB
:10341000140F400711D40E46481C29D086BB00BFAC
:103420001868400527D4FEF7B5FD236853F8140F3C
:10343000400737D518684007F2D5002070BD00BF9F
:1034400018684007F9D41868400514D41868400774
:10345000F3D4186840050ED418684007EDD41868F6
:10346000400508D4186840074FF0000048BF70BD01
:1034700018684005E4D56FF480601860042012E0FD
:10348000154603E053F8140F4007D6D418684005DA
:10349000F1D4FEF77FFD401B2368B042F2D9586992
:1034A0004007EFD4202000212022216384F83D2012
:1034B00084F83E10226C10432064012084F83C10F4
:1034C00070BD00002DE9F041054600681E46144617
:1034D00001F47F0201338FB242D0DDF81880B2F5DB
:1034E000803F40F0878040693840C01BB0FA80F0D0
:1034F0004009844240F0C8804EB924E04069384019
:10350000C01BB0FA80F04009844240F0BD80FEF755
:1035100041FDA0EB08012868B142EFD9416939406B
:10352000C91BB1FA81F149098C42E7D19BE000BF88
:1035300040693840C01BB0FA80F0400984424FF027
:10354000000040F0A280FEF725FD2868416939405F
:10355000C91BB1FA81F149098C42E9D183E000BF6E
:10356000B2F5803F24D100BF41693940C91BB1FA8F
:1035700081F149098C4240F0878041693940C91B7B
:10358000B1FA81F149098C4240F07E8041693940AD
:10359000C91BB1FA81F149098C4275D141693940A1
:1035A000C91BB1FA81F149098C42DDD06CE000BF42
:1035B00081693940C91BB1FA81F149098C4263D153
:1035C00081693940C91BB1FA81F149098C425BD14B
:1035D00081693940C91BB1FA81F149098C4253D143
:1035E00081693940C91BB1FA81F149098C42DFD0A8
:1035F0004AE000BF80693840C01BB0FA80F0400943
:10360000844241D146B923E080693840C01BB0FAFA
:1036100080F04009844237D1FEF7BCFCA0EB0801E2
:103620002868B142F0D981693940C91BB1FA81F1EA
:1036300049098C42E8D116E080693840C01BB0FAD5
:1036400080F0400984424FF0000018BFBDE8F081CF
:10365000FEF7A0FC286881693940C91BB1FA81F1E5
:1036600049098C42E8D100202021286385F83D10CB
:1036700085F83E00296C41F02001296485F83C0062
:103680000120BDE8F08100BF0020BDE8F08100000E
:10369000F0B581B0044600681D4643698FB203EA65
:1036A0000701B94202D1002001B0F0BD41691646C0
:1036B00001323CD0490512D47EB300BFFEF76AFC4C
:1036C000411B2068B14203D941693940B9422BD12D
:1036D00041693940B942E6D041694905EED50168F2
:1036E00041F4007101606FF48061416104200021A8
:1036F0002022216384F83D2084F83E10226C104380
:10370000206484F83C10012001B0F0BD41693940CB
:10371000B942C8D041694905E1D4FEF73BFC2068B5
:1037200041693940B942F1D02020E0E741694905BB
:10373000D5D441693940B942B5D041694905CED4A3
:1037400041693940B942AED041694905C7D44169A0
:103750003940B942A7D041694905C0D441693940CF
:10376000B942E3D19FE7000070B50368044653F8FF
:10377000140F000611D40E46481C29D086BB00BF8A
:103780001868400527D4FEF705FC236853F8140F8A
:10379000000637D518680006F2D5002070BD00BFBE
:1037A00018680006F9D41868400514D41868000693
:1037B000F3D4186840050ED418680006EDD41868D4
:1037C000400508D4186800064FF0000048BF70BDDF
:1037D00018684005E4D56FF480601860042012E09A
:1037E000154603E053F8140F0006D6D418684005B8
:1037F000F1D4FEF7CFFB401B2368B042F2D95869E1
:103800000006EFD4202000212022216384F83D20EF
:1038100084F83E10226C10432064012084F83C1090
:1038200070BD0000B0B584B040F27C4042F200416F
:10383000C2F20000C4F20101002401254FF460220D
:1038400005730475C261C0E9001484600561FDF769
:10385000FFFF002818BFFDF7C3FE0320CDE90105D7
:1038600040F27C40C2F2000001A90394FDF74CFF36
:10387000002818BFFDF7B4FE04B0B0BD2DE9F0413B
:1038800086B0002641F21800CDE90466CDE9026653
:10389000C4F20200016840F6000441F0100101602A
:1038A0000168C4F2010401F010010191019901685D
:1038B000002241F020010160016801F02001019126
:1038C0000199016841F004010160016801F00401FF
:1038D00001910199016841F008010160006813211C
:1038E00000F00800019001982046FEF74DFB0320F0
:1038F00002AD029001274FF0020820462946CDE98B
:103900000376CDF81480FEF737FA1020CDE90207D0
:1039100020462946CDE90478FEF72EFA2020CDE98D
:103920000206204629460496FEF726FA06B0BDE8B0
:10393000F081000080B540F2AC4045F20041C2F297
:103940000000C4F2000141F6802200234FF4804CB5
:10395000C0F2060280E80E00C0E9033CC0E905336E
:10396000C0E90733FEF71CFB002808BF80BDBDE897
:103970008040FDF735BE000010B58CB040F200501D
:1039800042F600410024C2F20000C4F20101C0E985
:1039900000140321CDE9031401214FF6FF72CDE994
:1039A0000514CDE9091403A9CDE90044C0E9024298
:1039B000C0E904448461CDE907440B94FFF7E6F9BC
:1039C000002818BFFDF70CFE40F20050C2F20000C4
:1039D0006946CDE90044FFF799F9002818BFFDF7C3
:1039E000FFFD0CB010BD0000B0B590B040F24850E3
:1039F0000021C2F200004FF0804247230925CDE9A3
:103A00000811CDE90611CDE90411C0E90023C0E990
:103A1000021501618161FFF751FC002818BFFDF715
:103A2000DFFD40F24850C2F2000008A9FFF76EF92E
:103A3000002818BFFDF7D4FD40F248546020C2F2C0
:103A400000040190002501A920460822CDE9025575
:103A50000595FFF731FB002818BFFDF7C1FD206871
:103A6000CDE90E55B0F1804F0D950C9502D010B0F8
:103A7000B0BD00BF41F21800C4F20200016841F07D
:103A80000401016000680CA900F004000B900B9881
:103A900004200C9002200D900F9040F60000C4F21C
:103AA0000100FEF769F910B0B0BD0000FEE70000AC
:103AB000FEE7000080B540F27000C2F200004FF453
:103AC0008161FCF744FC80BD70B582B06420FEF7D4
:103AD0003FF940F2AC444FF42E40C2F20004ADF87E
:103AE00006004FF0FF350DF1060220467821022333
:103AF0000095FEF707FB4FF45540ADF806000DF1B9
:103B000006022046782102230095FEF7FBFA4FF4C7
:103B10000040ADF806000DF1060220467821022390
:103B20000095FEF7EFFA4FF42840ADF806000DF1CE
:103B300006022046782102230095FEF7E3FA4FF4AF
:103B40007C50ADF806000DF10602204678210223D4
:103B50000095FEF7D7FA4FF45340ADF806000DF18B
:103B600006022046782102230095FEF7CBFA0020BA
:103B7000ADF806000DF106022046782102230095DB
:103B8000FEF7C0FA4FF480460DF106022046782178
:103B90000223ADF806600095FEF7B4FA4FF40D402D
:103BA000ADF806000DF106022046782102230095AB
:103BB000FEF7A8FA4FF4A050ADF806000DF106028A
:103BC0002046782102230095FEF79CFA4FF400501E
:103BD000ADF806000DF1060220467821022300957B
:103BE000FEF790FA4FF40070ADF806000DF10602F2
:103BF0002046782102230095FEF784FA4FF42140F5
:103C0000ADF806000DF1060220467821022300954A
:103C1000FEF778FA4FF44840ADF806000DF10602C1
:103C20002046782102230095FEF76CFA4FF45A40A3
:103C3000ADF806000DF1060220467821022300951A
:103C4000FEF760FA4FF49050ADF806000DF1060251
:103C50002046782102230095FEF754FA4FF40140E4
:103C6000ADF806000DF106022046782102230095EA
:103C7000FEF748FA4FF4FE40ADF806000DF10602DB
:103C80002046782102230095FEF73CFA4FF4594074
:103C9000ADF806000DF106022046782102230095BA
:103CA000FEF730FA4FF47140ADF806000DF1060250
:103CB0002046782102230095FEF724FA4FF45B405A
:103CC000ADF806000DF1060220467821022300958A
:103CD000FEF718FA0DF10602204678210223ADF80E
:103CE00006600095FEF70EFA4FF42440ADF806008A
:103CF0000DF106022046782102230095FEF702FA14
:103D00004FF42640ADF806000DF10602204678215A
:103D100002230095FEF7F6F94FF42F40ADF80600A8
:103D20000DF106022046782102230095FEF7EAF9FC
:103D300002B070BDF0B5C1B001AF14460D460646E5
:103D400046AA384619460092FCF7AAFA3046294698
:103D50003A46234600F094FA41B0F0BD2DE9F04F09
:103D600089B0002B02926DD0029A03EB010E002A5B
:103D700056D040F2700C1618C2F2000C4FF000083A
:103D80000A46894606E000BF09F101090FFA89F2E7
:103D9000964557DD1FFA89F4402C04462ED2D208EE
:103DA00002EBC2120CEB020702460446A5B27F2DBD
:103DB00004F1010598BF07F802802AB29642E3DDBC
:103DC000ADB27F2D04F1020598BF07F802802AB238
:103DD0009642D9DDADB27F2D04F1030598BF07F8F7
:103DE00002802AB29642CFDDADB204347F2D98BF57
:103DF00007F8028022B29642D8DCC5E7621C12B2F4
:103E00009642C1DDA21C12B29642BDDDE21C12B286
:103E10009642B9DD043422B29642EFDCB4E700BF2B
:103E20000F4600BF7A1C12B296450BDDBA1C12B2C7
:103E3000964507DDFA1C12B2964503DD04373AB207
:103E40009645EFDC5A1EDDF808E002EB5272BEF137
:103E5000000F4FEAE20700F0FB8101EB5172D31033
:103E600003EBE13322F00702049308238A1A03EAE2
:103E7000113111441FFA81F9C1F108018CB20EF021
:103E800003010891411C0191811C009140F27001D5
:103E9000C2F2000101440EF0FC0A039100214FF030
:103EA0000008059708E000BF08F10108059A5FFACD
:103EB00088F18A42C0F2E181129B5FFA88F20EFB20
:103EC000023B049A0A4401FB0E31082A02F1010662
:103ED000069167D2082E079280F0A880BEF1040FE9
:103EE00080F0EE804FF0000C0899DDF808E0079DA7
:103EF0000029D9D00CEB00017F2915D8069D079A1F
:103F000015F80C3002EBC21740F27002C2F2000248
:103F100003FA09F317447B5415F80C3006EBC61767
:103F2000079DE34017447B5408990129BCD00199AF
:103F300061447F2917D8069B079A0CF1010B13F8EF
:103F40000B7002EBC21540F27002C2F2000207FAD7
:103F500009F715446F5413F80B3006EBC617079D8D
:103F6000E34017447B54089902299DD0009961448D
:103F70007F2999D8069B0CF1020C13F80C7005EB05
:103F8000C51240F27005C2F2000507FA09F72A448B
:103F9000575413F80C2006EBC613E2402B445A5436
:103FA00082E700BF072E3FF67FAFBEF1040F80F01F
:103FB000DD800025089900293FF476AF29187F2974
:103FC0000AD8069A40F27007525D06EBC613C2F299
:103FD0000007E2403B445A54089901293FF464AF7A
:103FE000019929447F290BD8069B6A1C9A5C40F2F0
:103FF000700706EBC613C2F20007E2403B445A5476
:10400000089902293FF450AF009929447F293FF6CF
:104010004BAF069BAA1C9A5C40F2700706EBC613D6
:10402000C2F20007E2403B445A543DE7BEF1040FA0
:1040300080F0DA8000250899079F00293FF434AF0B
:1040400029187F290DD8069A535D079A03FA09F3B8
:1040500002EBC21740F27002C2F2000217447B5416
:10406000079F089901293FF41FAF019929447F292F
:104070000ED8069A6B1CD35C079A03FA09F302EB7D
:10408000C21740F27002C2F2000217447B54079F2D
:10409000089902293FF408AF009929447F293FF687
:1040A00003AF069AAB1CD35C07EBC71240F2700754
:1040B000C2F2000703FA09F33A445354F4E600BF8E
:1040C00002EBC211039A4FF0000C551805E000BF37
:1040D0000CF1040CE2453FF407AF00EB0C0EBEF10F
:1040E0007F0F05EB0C030FD90EF101017F290BEBBC
:1040F0000C071AD90EF102017F2922D90EF1030112
:104100007F29E5D829E000BF1BF80C1001FA09F15E
:1041100005F80C101BF80C10E14083F881100EF12B
:1041200001017F290BEB0C07E4D8797801FA09F13A
:1041300059707978E14083F882100EF102017F29ED
:10414000DCD8B97801FA09F19970B978E14083F8BF
:1041500083100EF103017F29BAD8F97801FA09F129
:10416000D970F978E14083F88410B1E702EBC2110D
:10417000039A0025531803E00435AA453FF41AAF0B
:1041800047197F2F0AD9791C7F2910D9B91C7F299B
:1041900017D9F91C7F29EFD81DE000BF1BF80510C7
:1041A0005A19E14082F88110791C7F29EED80BEB77
:1041B000050149785A19E14082F88210B91C7F291B
:1041C000E7D80BEB050189785A19E14082F8831092
:1041D000F91C7F29D0D80BEB0501C9785A19E140A9
:1041E00082F88410C8E700BF02EBC211039A0025D1
:1041F000531803E00435AA453FF41DAF47197F2F3C
:1042000004D81BF8051001FA09F15955791C7F29CA
:104210000BEB050103EB050606D9BA1C7F2A0AD968
:10422000FA1C7F2AE6D80DE04A7802FA09F2727089
:10423000BA1C7F2AF4D88A7802FA09F2B270FA1C02
:104240007F2AD7D8C97801FA09F1F170D2E700BF07
:10425000002000BF40F00101C9B28F420DDB40F0E9
:104260000201C9B28F4208D340F00301C9B28F42A4
:1042700003D30430C1B28F42ECD209B0BDE8F08F55
:104280002DE9F04F89B0154612780591002A069065
:1042900000F0E2800DF11F01881C0490C81C45F25B
:1042A000CE4A98460390081DC0F6000A4FF0250B31
:1042B00000264FF00009029016E000BF069845F274
:1042C000D151C0F60001304401F1BA07059900B29E
:1042D000062208230097FFF741FD06361FFA89F0F2
:1042E0002A5C002A00F0B88050B2B0F1FF3F13DC26
:1042F00002F0E000C02809F1010029D002F0F0012D
:10430000E02933D002F0F801F02943D081B26A5C91
:104310008146002AE8D19FE000208DF82000069811
:10432000B8F1060F304400B28DF81F2000F08080F5
:10433000B8F1080F40F08C8045F60B01C0F6000183
:1043400001EB0211A1F500770599082210237CE00A
:1043500080B2285C8DF81F20002800F07D808DF849
:104360002000049809F102092FE000BF80B2285C08
:104370008DF81F2000286FD009F1020189B2695C15
:104380008DF82000002967D0039809F103098DF802
:1043900021101AE080B2285C8DF81F2000285BD025
:1043A00009F1020189B2695C8DF82000002953D01F
:1043B00009F1030080B2285C8DF8211000284BD051
:1043C0008DF82200029809F104099AF800100029DA
:1043D0004FF00001017015D00024574638460DF10A
:1043E0001F01FBF7DBFF48B10134A0B200FB0BF16A
:1043F0001AF8011000FB0BA70029EFD1B8F1060F46
:1044000005D15BE75746B8F1060F3FF457AFB8F157
:10441000080F7FF463AF069805993044053700B262
:10442000102210230097FFF799FC103656E700BFC3
:1044300002EB420145F2D152C0F6000202EB41010B
:10444000A1F1C0070599062208230097FFF786FC13
:1044500009F10109464441E709B0BDE8F08F0000C9
:104460002DE9F04FA3B040F27840C2F2000001788D
:104470000DF10B050131017040F27000C2F2000035
:1044800040F2AC47A0F1810405F101094FF00008AA
:104490004FF0FF36C2F200074FF0400B4FF0000A1A
:1044A0004AF0B0008DF80C00384678212A460223E5
:1044B0008DF80B800096FDF725FE4FF48050ADF887
:1044C0000B00384678212A4602230096FDF71AFE93
:1044D000384678212A460223ADF80B800096FDF776
:1044E00011FE8134484621468022FBF7EBFE384618
:1044F00078212A4681238DF80BB00096FDF702FE45
:104500000AF1010ABAF1080FCAD123B0BDE8F08F51
:104510007047000070470000FDF724BF704700009F
:1045200040F20050C2F20000FEF71CBD40F24850BD
:10453000C2F20000FEF716BDFEE7000096B0FDF7E0
:104540001FFF00240120CDE91144CDE90F440C9058
:1045500010904FF4E0104FF48031022515900CA814
:104560000694CDE90444CDE90D14CDE91351FEF7CD
:10457000B3F928B1EFF3108072B600BFFEE700BFB9
:104580000F20CDE907054FF48060CDE90A0407A8A4
:1045900002210994FEF79AF820B1EFF3108072B669
:1045A000FEE700BF022003904FF40040059003A8EF
:1045B000FEF70AF820B1EFF3108072B6FEE700BFF5
:1045C000FFF75CF9FFF7B6F9FFF7D6F9FFF70CFA3A
:1045D000FFF728F9FFF778FAFFF76CFAFFF740FFCB
:1045E00040F27C44C2F200042046FCF7FFFF204664
:1045F000FDF746FB20464FF0FF31FDF709FA40F288
:10460000000B4FF0000AC4F2180B20A422A524A628
:1046100040F27C40C2F20000FDF716F9074600F0B8
:10462000B1FD4FF600630022C4F2AF0300F04EFC70
:1046300046F266634FF06632C4F20A0300F0BAFD38
:1046400000225B4600F0B6FD80468946002000212E
:10465000082223460097FFF76DFB00201021082257
:104660002B46CDE90089FFF765FB002020210822B9
:104670003346CDF800A0FFF75DFBFFF7F1FE4FF4E6
:104680007A700AF1010AFDF763FBC1E776616C7588
:10469000653A256400000000563A256C660000006B
:1046A00074696D653A256473000000005FEA400C90
:1046B00008BF91F0000F4FEA8C234FEAC12243EA72
:1046C00051514FEA1C5018BF00F5F0404FEA30003E
:1046D00018BF41F000415FEA6C5C00F02980BCF13A
:1046E000FF3F08BF40F080407047130C06BF120424
:1046F0004FF0100C4FF0000C130E04BF12020CF11F
:10470000080C130F04BF12010CF1040C930F04BF2B
:1047100092000CF1020CD30F04BF52000CF1010CFB
:1047200011464FF00002A0F11F00A0EB0C007047F3
:1047300011F0004F08BF704731F000413FF4D5AF92
:104740000B0C06BF09044FF0100C4FF0000C0B0EC1
:1047500004BF09020CF1080C0B0F04BF09010CF196
:10476000040C8B0F04BF89000CF1020CCB0F04BFAB
:1047700049000CF1010CCCF1200322FA03F341EAC9
:10478000030102FA0CF2A0EB0C0000F101007047EB
:1047900023F07F4720F07F4C80EA030000F00040C8
:1047A000ACEB070303F57C5303F1FF032DE98049CC
:1047B00009B44FEA144324EA03484FEA154B25EAAB
:1047C0000B4E0FF2042606EB13273E7803FB066719
:1047D000C7F5000707FB06F64FEAD64606F10206C4
:1047E0004FEA543707FB066CCCF1005C4FEA1C47DC
:1047F0002CEA074C0CFB06F507FB06F404EB154608
:104800004FEA961649085FEA320234BF00204FF0A3
:1048100000404FEAD13706FB07FC4FEA1C4C0CFB6B
:104820000BF7D21B03FB0CF761EB07010CFB0EF738
:10483000B0EB074072EB17420CFB08F734BFA2EB5A
:104840000742B2EB074261EB17414FEA0C444FEAD3
:10485000910706FB07FC4FEA1C4C0CFB0BF7B0EB77
:10486000C74072EB573203FB0CF734BFA2EBC742D1
:10487000B2EBC74261EB57310CFB0EF7B0EBC70050
:1048800072EB57720CFB08F734BFA2EBC702B2EB16
:10489000C70261EB57714FEA816141EA92114FEA19
:1048A000826242EA90124FEA806004EBCC04039FDC
:1048B0004FEAD13706FB07FC4FEA1C4C0CFB0BF709
:1048C000D21B03FB0CF761EB07010CFB0EF7B0EBFF
:1048D000074072EB17420CFB08F734BFA2EB07420C
:1048E000B2EB074261EB17414FEA8C5504EB9C2475
:1048F0004FEA910706FB07FC4FEA1C4C0CFB0BF739
:10490000B0EBC74072EB573203FB0CF734BFA2EB9E
:10491000C742B2EBC74261EB57310CFB0EF7B0EB6D
:10492000C70072EB57720CFB08F734BFA2EBC7024B
:10493000B2EBC70261EB57714FEA816141EA921114
:104940004FEA826242EA90124FEA806015EB4C25F2
:1049500044F100044FEAD13706FB07FC4FEA1C4C38
:104960000CFB0BF7D21B03FB0CF761EB07010CFBF5
:104970000EF7B0EB074072EB17420CFB08F734BFA1
:10498000A2EB0742B2EB074261EB17414FEA8131DC
:1049900041EA92414FEA823242EA90424FEA803045
:1049A0004FEA0C7615EB1C1544F1000448EA03436A
:1049B0004EEA0B484FF0000EB2EB080C71EB030708
:1049C00024BF624639464EEB0E0E4FF0000B001826
:1049D000524149414BEB0B0BB2EB080C71EB030757
:1049E0007BF1000B24BF624639464EEB0E0E4FF0B2
:1049F000000B0018524149414BEB0B0BB2EB080C7A
:104A000071EB03077BF1000B24BF624639464EEB86
:104A10000E0E51EA020718BF46F0010616EB0E769D
:104A200055F1000254F1000103D5BDE88901BDE84C
:104A30000088BDE88901BDE80048B619524141EB44
:104A40000101A3F10103704780807F7E7D7C7B7A2A
:104A50007978777676757473727171706F6E6E6D2A
:104A60006C6C6B6A6A6968686766666564646363D0
:104A700062616160605F5F5E5E5D5D5C5C5B5B5A56
:104A80005A595958585757565655555554545353C3
:104A900052525251515050504F4F4F4E4E4D4D4D1E
:104AA0004C4C4C4B4B4B4A4A4A4949494848484769
:104AB00047474746464645454544444444434343A7
:104AC00043424242424141419C46002B30D4770050
:104AD0002BD04FEA37071CB503B44FF010004FF04E
:104AE0001001BAF1000F06D0BCF1000FDCBF40F09E
:104AF000080040F008014FF000000FBCBDE8104076
:104B00000BF1010BBBF1010F08BF5FEA170722BFD2
:104B100012F1010211F101014FF0004143F10003D4
:104B200000F0004043EA00007047F9D35708D0E78F
:104B300046EA06464FEA164613F1400F1FDD13F111
:104B4000200FDFBF16430A46002120335B42BED050
:104B5000C3F1200746EA06464FEA164602FA07F76F
:104B600046EA070622FA03F2C3F1200701FA07F723
:104B700042EA070221FA03F14FF00003A7E746EAF1
:104B8000020646EA06464FEA164646EA0106BCBF5A
:104B900046EA0646360C4FF000034FF000024FF095
:104BA000000194E72DE9804C70B49A46934691E851
:104BB000380007C831EA400C48BF34EA430C03D53B
:104BC000FFF7E6FDFFF780FFF0BCBDE8008C2DE9A4
:104BD000804C70B49A46934691E8380007C810F0AC
:104BE000804F08BF13F0804F03D100F005F8FFF7A6
:104BF0006BFFF0BCBDE8008C20F07F4723F07F4CBA
:104C000080EA030000F0004007EB0C03A3F57C539F
:104C1000A3F1FE0392F0000F00F0B38095F0000FB7
:104C200000F077802DE901494FEA114021EA004860
:104C30004FEA144624EA064700FB06FC08FB06F68A
:104C400007FB08F818EB06484CEB164C00FB07F77F
:104C500018EB07484CEB17404FEA124B22EA0B4E79
:104C60004FEA154625EA06470BFB06FC0EFB06F647
:104C700007FB0EFE1EEB064E4CEB164C0BFB07F72C
:104C80001EEB074E4CEB174B18EB0B0840F10000E6
:104C900018EB0E0B58EB000840F100008F1A4FF094
:104CA00000014FF000063CBFC943661B14BFB5EBC3
:104CB000040C00213CBFC943F61B4FEA174427EA06
:104CC00004454FEA1C472CEA074C04FB076205FB2E
:104CD00007F70CFB05F616EB074642EB174204FB01
:104CE0000CFC16EB0C4642EB1C421BEB060658EB89
:104CF000020241414EEA8E0E46EA9E0601D5BDE80B
:104D00000189B619524141EB0101A3F10103BDE84C
:104D100001894FEA144524EA05464FEA114721EA82
:104D2000074C05FB07F406FB07F70CFB06F111EB3C
:104D3000074144EB174405FB0CFC11EB0C4144EB21
:104D40001C444FEA124722EA074C05FB07F206FB18
:104D500007F70CFB06F616EB074642EB174205FB7E
:104D60000CFC16EB0C4642EB1C456A1854F1000192
:104D700048BF7047B619524141EB0101A3F101034D
:104D8000704795F0000F37D04FEA114221EA0246F2
:104D90004FEA144724EA074C02FB07F106FB07F72A
:104DA0000CFB06F414EB074441EB174102FB0CFC2F
:104DB00014EB0C4441EB1C414FEA154725EA074C24
:104DC00002FB07F506FB07F70CFB06F616EB07469A
:104DD00045EB174502FB0CFC16EB0C4645EB1C4261
:104DE000121951F1000148BF7047B619524141EB09
:104DF0000101A3F1010370474FEA144524EA054677
:104E00004FEA114721EA074C05FB07F106FB07F7BC
:104E10000CFB06F212EB074241EB174105FB0CFCC1
:104E200012EB0C4251EB1C414FF0000648BF70479B
:104E3000921841EB0101A3F101037047490050EAC8
:104E4000C12018BF04204A0D18BF40F0010040F2F5
:104E5000FF72B2EB515F08BF40F00200012808BFAB
:104E60000520704730380A2801D201207047002001
:104E70007047000010B500290AD00878002807D034
:104E800005487844FBF78AFA002801D0002010BDBD
:104E90000248784410BD0000AA0F0000A20F0000D5
:104EA00010B500290AD00878002807D005487844B2
:104EB000FBF774FA002801D0002010BD02487844A6
:104EC00010BD00009A0F0000920F00002DE9C041B4
:104ED00030B4DFF8A8C23CEA111418BF3CEA13143E
:104EE00000F0F0801CEA111481EA030544EAD5744D
:104EF00018BF1CEA131500F0CB80A4EB050404F1E5
:104F00007F7404F500344FF0004545EAC12145EABD
:104F1000C32341EA505143EA52534FEAC0204FEABB
:104F2000C222994208BF904200F0A0804FEA136568
:104F30000FF24816765D4FEA134506FB05F7C7F1F9
:104F4000807706FB07F74FEAD737A7FB036876425F
:104F5000A7FB06CEC8F5803838BFA8F1010807FBCB
:104F600008E6A6FB028C4FF0000EE6FB03CED8F15C
:104F700000086FEA0C0C5CF1000C6FEA0E0E4EF1AB
:104F8000004EA6FB0C584FF00007E6FB0E87A1FB76
:104F900008C6A0FB07CE16EB0E064FF0000545F144
:104FA0000005E1FB076515F1E04E7EBFA4F58034F6
:104FB0005FEA46066D4116F1800745F100054FEAAC
:104FC000172747EA05674FEA15254FEA0666A6F157
:104FD000DE46B6F1805F20D9384605EBC47124F077
:104FE000010C01EB0C11BCF1FE6F02D8F0BCBDE866
:104FF000008124425CBF01F5801E9EEAC47F02D47A
:10500000F0BCBDE80081244200F13980A1F1C0412B
:10501000F0BCBDE8004100F0C5B94FEAD02040EA3D
:1050200041504FEAD1214FEAD22242EA43524FEA9D
:10503000D323A7FB028607FB036605FB02661EEA75
:105040000E0F58BFA6EB0056B6EB00564FEA520EB5
:105050004EEAC37E18EB0E0E56EB530EBCD518EB82
:1050600002085E417F1C55F10005B5E74FF480153D
:105070004FF000074FF000064FF00008ACE701F1D9
:10508000C04101F000414FF00000F0BCBDE80081DC
:105090000CEA131511EA0C1F00D00CE013EA0C1FE8
:1050A00000F025804FF0000081EA030101F000418B
:1050B000F0BCBDE80081F0BCBDE8004181EA03011D
:1050C00000F070B9F0BCBDE8004170B500F01CF90B
:1050D000097EFC3E00F007B84FF0000081EA0301B2
:1050E00001F00041704781EA030100F05BB9F0BCB8
:1050F000BDE8004122494FF000007047FFFDFBF979
:10510000F7F5F4F2F0EEEDEBE9E8E6E4E3E1E0DEFA
:10511000DDDBDAD8D7D5D4D3D1D0CFCDCCCBCAC86C
:10512000C7C6C5C4C2C1C0BFBEBDBCBBBAB9B8B793
:10513000B6B5B4B3B2B1B0AFAEADACABAAA9A8A886
:10514000A7A6A5A4A3A3A2A1A09F9F9E9D9C9C9B54
:105150009A999998979796959594939392919190FF
:105160008F8F8E8E8D8C8C8B8B8A89898888878790
:105170008685858484838382828181800000FF0705
:105180000000F87F10F0004248BF4042B0FA80F3C0
:1051900010FA03F10AD0C3F11D0303F5806302EB9B
:1051A00003524FEA415002EBD12170474FF000000B
:1051B0007047000070B5DFF848C11CEA111E1EBF21
:1051C0001CEA13159EEA0C0F95EA0C0F00F06F8095
:1051D00081EA03044EEAD47EAE4421EA4C1123EA6C
:1051E0004C1341F4801143F48013AEF17F7EA1FB98
:1051F000024CA0FB0365361955EB0C05A1FB034CD3
:105200004CF10003A0FB021C16EB0C06654153F1A8
:105210000003094218BF46F0010613F4007F0BD1CA
:105220004FEA03314FEA053041EA155140EA165082
:1052300034036FF003020AE04FEAC3214FEAC520AE
:1052400041EA555140EA5650F4026FF0020202EB77
:105250002E4201EB025585EACE710AD05FEA440C7A
:1052600018BF24F0004450F1000041F1000120EA91
:10527000D47040F2FE7C624500D270BDA84214BFDB
:105280004FF080444FF04044002E08BF0024BEF190
:10529000806FA8BFA1F1C041BDE8704080F282805C
:1052A00001F1C04101F000414FF0000070470CEAED
:1052B00013159EEA0C0F18BF95EA0C0F06D081EA71
:1052C000030E4FF000000EF0004170BD00F01CF81E
:1052D0008900013E00F007B800F009B84FEA430C1E
:1052E0005FEA5C5C08D081EA030100F05BB84FEA3A
:1052F000410C5FEA5C5CF6D102494FF00000704758
:105300000000FF070000F87F0EF1020E2EF0030EE2
:105310005EF8046B364205D4012A43EB030515F50C
:10532000001F12D8012841EB010C1CF5001F0CD8FE
:105330000ED14FEAD17C0CEB4C0C0CF1020C15F5A4
:10534000001F08BF4CEBD37C04E04FF0080C01E0D9
:105350004FEAD37C0CEB4C0526FA05F606F007065F
:10536000B6F1040C06D20EEB860CBDE870404CF092
:10537000010C6047DFE80CF0090B02024FF000411E
:10538000A1F500214FF0000070BD1946104601281C
:1053900051EB010418BFD4F5001484BF002001F0C4
:1053A000004170BD0808A0F500114FEA31017047B7
:1053B000FBF792BCFBF7C6BD000000000000000038
:1053C000303132333435363738394142434445463B
:1053D0004030580030313233343536373839616235
:1053E0006364656640307800040000080000000037
:1053F0000000000200010000103031323334353635
:1054000037383961626364656678700030313233F1
:105410003435363738394142434445465850000008
:1054200002400000000000A0000000000540000055
:10543000000000C8000000000C4000000000409C7C
:1054400000000000194000000020BCBE0000000069
:1054500034400000BFC91B8E00000004B5400000AE
:10546000504BCFD06607E2CF010000006C41000036
:105470003E8251AADFEEA73401000000D9420000AD
:10548000DCB5A0E23A301F97FFFFFFFFB4450000F4
:10549000FD25A0C8E9A3C14FFFFFFFFFFF3F0000AC
:1054A0000000008000000000FF3F000000000080BE
:1054B00000000000000000000000000001020304E2
:1054C0000607080900000000010203040102EFBC06
:1054D0008C00000000000000000000000000000040
:1054E000000000000058380000000000000000002C
:1054F000000000E3808200000000000000000000C7
:105500000000000000000000000018242418000023
:105510000000000000000000E4BDA000000080606A
:10552000F8074020180F08C80808281800010000D4
:10553000FF00100C0340807F0001061800E5A5BDA8
:1055400000001010F01F10F000808282E2928A8624
:105550008000402215081661000040807F00000096
:105560000000E4B8960000202020FE2020FF20202C
:1055700020FF20202020000000007F4040474444BE
:1055800044474040400000E7958C0000000000FECA
:10559000929292FE929292FE00000000080804840B
:1055A000621E010001FE0204040808000000000061
:1055B00000FF010101310909090989710101010196
:1055C000FFFF8080808080809681808080808080C6
:1055D000FF0000000000000000002F000000000796
:1055E00000070000147F147F1400242A7F2A120071
:1055F000231308646200364955225000000007005A
:105600000000001C224100000041221C0000140880
:105610003E08140008083E0808000000A0600000D2
:105620000808080808000060600000002010080456
:1056300002003E5149453E0000427F400000426169
:10564000514946002141454B31001814127F10008A
:105650002745454539003C4A494930000171090553
:105660000300364949493600064949291E000036DB
:1056700036000000005636000000081422410000E9
:1056800014141414140000412214080002015109DA
:1056900006003E4955592E007C1211127C007F49AC
:1056A000494936003E41414122007F4141221C00D0
:1056B0007F49494941007F09090901003E414949A3
:1056C0007A007F0808087F0000417F4100002040E9
:1056D000413F01007F08142241007F4040404000CC
:1056E0007F020C027F007F0408107F003E41414191
:1056F0003E007F09090906003E4151215E007F09F5
:105700001929460046494949310001017F0101003C
:105710003F4040403F001F2040201F003F40384096
:105720003F00631408146300070870080700615104
:1057300049454300007F4141000002040810200059
:105740000041417F0000040201020400404040404B
:1057500040000001020400002054545478007F48A7
:1057600044443800384444442000384444487F00CE
:10577000385454541800087E0901020018A4A4A447
:105780007C007F080404780000447D4000004080D5
:10579000847D00007F102844000000417F4000000D
:1057A0007C04180478007C080404780038444444DD
:1057B0003800FC242424180018242418FC007C0839
:1057C00004040800485454542000043F444020007E
:1057D0003C4040207C001C2040201C003C403040CD
:1057E0003C004428102844001CA0A0A07C00446475
:1057F000544C440000087F41000000007F0000007E
:1058000000417F08000008040810080000000000A4
:105810000000000000000000000000000000F80090
:10582000000000000000333000000000160E0016DB
:105830000E0000000000000000000040C07840C0E2
:10584000784000043F04043F040400007088FC0812
:10585000300000001820FF211E0000F008F000E0DA
:1058600018000000211C031E211E0000F008887093
:105870000000001E21232419272110000000160E0D
:105880000000000000000000000000000000E01820
:10589000040200000000071820400000020418E085
:1058A0000000000040201807000000404080F08009
:1058B0004040000202010F01020200000000F0005F
:1058C0000000000101011F010101000000000000B3
:1058D00000000000B07000000000000000000000A8
:1058E00000000000010101010101010000000000B1
:1058F00000000000303000000000000000000080C8
:10590000601804006018060100000000E01008089C
:1059100010E000000F102020100F00001010F80001
:105920000000000020203F20200000007008080830
:105930008870000030282422213000003008888838
:105940004830000018202020110E000000C0201058
:10595000F8000000070424243F240000F808888889
:105960000808000019212020110E0000E01088888E
:10597000180000000F112020110E0000380808C880
:105980003808000000003F00000000007088080890
:10599000887000001C222121221C0000E010080851
:1059A00010E0000000312222110F00000000C0C0F2
:1059B0000000000000003030000000000000C0C007
:1059C000000000000080B070000000000080402057
:1059D0001008000001020408102000404040404030
:1059E00040400004040404040404000008102040A3
:1059F0008000000020100804020100007048080820
:105A000008F0000000003036010000C030C828E86F
:105A100010E0000718272423140B000000C038E012
:105A2000000000203C23020227382008F8888888DC
:105A3000700000203F202020110E00C03008080810
:105A4000083800071820202010080008F808080867
:105A500010E000203F202020100F0008F88888E880
:105A6000081000203F20202320180008F88888E82C
:105A7000081000203F200003000000C03008080884
:105A800038000007182020221E020008F808000035
:105A900008F808203F210101213F20000808F808EC
:105AA0000800000020203F2020000000000808F827
:105AB000080800C08080807F00000008F888C028A7
:105AC000180800203F20012638200008F8080000B0
:105AD000000000203F20202020300008F8F800F8C7
