:020000040800F2
:100000001009002001010008D5230008811D000807
:10001000D1230008F10600080131000800000000AB
:10002000000000000000000000000000DD300008BB
:10003000F506000800000000D9300008E130000893
:100040001B0100081B0100081B0100081B01000820
:100050001B0100081B0100081B0100081B01000810
:100060001B0100081B0100081B0100081B01000800
:100070001B0100081B0100081B0100081B010008F0
:100080001B0100081B0100081B0100081B010008E0
:100090001B0100081B0100081B0100081B010008D0
:1000A000E93000081B0100081B0100081B010008C3
:1000B000F53000081B0100081B0100081B010008A7
:1000C0001B0100081B0100081B0100081B010008A0
:1000D0001B0100081B0100081B0100081B01000890
:1000E0001B0100081B0100081B010008DFF80CD0F1
:1000F00000F0E6FA0048004705310008100900202A
:100100000648804706480047FEE7FEE7FEE7FEE7B1
:10011000FEE7FEE7FEE7FEE7FEE7FEE7E530000864
:10012000ED00000810B5431A934209D283188818CD
:1001300003E010F8011D03F8011D521EF9D210BD95
:1001400040EA01039B0703D009E008C9121F08C059
:10015000042AFAD203E011F8013B00F8013B521ED9
:10016000F9D210BDD2B201E000F8012B491EFBD23A
:1001700070470022F6E710B513460A4604461946B2
:10018000FFF7F0FF204610BD10B5002200E0521C22
:10019000835C8C5CA34201D1002BF8D1D8B2E1B2D0
:1001A000401A10BD2DE9FE4F804681EA0300C00FC2
:1001B0000C46009021F0004123F00045B8EB02000E
:1001C000A94105D24046214690461C460B460246B0
:1001D00023F00040104347D0270DC7F30A00C3F3B4
:1001E0000A510290401A019040286BDAC3F31300C1
:1001F00040F4801B0098924620B10023D2EB030A02
:1002000063EB0B0B01985946C0F14002504600F0D9
:1002100098F906460D4650465946019A00F0B0F945
:1002200010EB08006141002487EA115284EAE77369
:100230001A4340D0009A62B3019A012A4FEA07524A
:1002400015DC001B61EB02014FF0004202EA07528D
:10025000CDE90042001C41F5801132462B4600F0EA
:10026000B0F903B0BDE8F08F40462146F9E7001B26
:1002700061EB0201001C41F5801300185B4120185E
:10028000A2F5001747EB030140EAD570B6196D419E
:1002900011E06D084FEA360645EAC0754FEA07528D
:1002A000001B61EB0201001C41F5801149084FEA77
:1002B00030000019514132462B4603B0BDE8F04FE3
:1002C00000F070B90098012240000023D0EB020238
:1002D00063EBE073009821464FEAE074B8EB00004E
:1002E00061EB0401E9E783F000435BE781F0004143
:1002F00058E72DE9FE4F81EA030404F0004421F0A1
:10030000004100944FF0000B23F0004350EA010439
:100310005ED052EA03045BD0C3F30A54C1F30A551A
:100320002C44A4F2F3340194A0FB0254C1F3130152
:1003300041F48011C3F3130343F4801301FB02441F
:1003400000FB034E840A970A44EA815447EA835724
:10035000A4FB076802958D0A05FB07854FEA932CDD
:1003600004FB0C542705029D4FEA065847EA16374E
:10037000B5EB08056EEB070C870E920E47EA811766
:1003800042EA8312A7FB0201B6EB0B0164EB000407
:100390002B0D43EA0C335E1844EB1C50DA465146F1
:1003A000E7FB0201C5F313044FEA0B3343EA14538E
:1003B0004FEA0432019C43EA0603A4F10C040294C0
:1003C000009CCDE900B400F0FCF803B0BDE8F08F6C
:1003D00000200146F9E72DE9F04D81EA030404F01D
:1003E000004B21F0004514464FF0000A23F0004175
:1003F00050EA050220D054EA01021DD0C5F30A5785
:100400000246C5F31303C1F31300C1F30A5640F4C7
:10041000801543F48013A7EB0608101BD64608F29C
:10042000FD3873EB050002D308F1010801E09218D2
:100430005B41B8F1000F03DA00200146BDE8F08D02
:1004400000204FF48011064684460EE0171B73EB24
:10045000050705D3121B63EB050306434CEA010CA9
:1004600049084FEA300092185B4150EA0107EDD18C
:1004700052EA030012D082EA040083EA050108432D
:1004800005D0101BAB4106D20122002306E000225A
:100490004FF0004302E06FF0010253101AEB060028
:1004A0004CEB085110EB0A0041EB0B01BDE8F04D9D
:1004B00000F078B830B50B46014600202022012418
:1004C00009E021FA02F59D4205D303FA02F5491B22
:1004D00004FA02F52844151EA2F10102F1DC30BD38
:1004E0002DE9F05F0546002092469B468846064669
:1004F000814640241BE0284641464746224600F0FC
:100500002FF853465A46C01A914110D31146184647
:10051000224600F016F82D1A67EB01084F462246D6
:100520000120002100F00DF817EB00094E41201EBC
:10053000A4F10104DFDC484631462A464346BDE8C3
:10054000F09F202A04DB203A00FA02F100207047D5
:100550009140C2F1200320FA03F319439040704701
:10056000202A04DB203A21FA02F00021704721FA08
:1005700002F3D040C2F1200291400843194670476F
:10058000202A06DBCB17203A41FA02F043EAE07357
:1005900006E041FA02F3D040C2F120029140084344
:1005A0001946704710B5141E73F1000408DA401C98
:1005B00041F1000192185B411A4301D120F0010082
:1005C00010BD2DE9F04D92469B4611B1B1FA81F272
:1005D00002E0B0FA80F220329046FFF7B2FF044604
:1005E0000F4640EA0A0041EA0B0153465A460843C7
:1005F00013D0114653EA010019D0C8F14002504609
:10060000FFF7AEFF05460E46504659464246FFF7F5
:1006100098FF084305D0012004E020463946BDE894
:10062000F08D0020054346EAE0762C4337430A98D4
:100630006305E40AA0EB08000022FD0A44EA4754DF
:100640000A3002D500200146E9E701051019694189
:10065000DDE9084500196941BDE8F04DA2E7C1F3A5
:100660000A52C1F3130140F2FF3341F480119A4260
:1006700002DA00200146704740F233439A42A2F268
:10068000334202DC5242FFF76BBFFFF75ABF000054
:1006900030B5041E71F1000404DB4FF00044404209
:1006A00064EB0101141E73F1000405DB1C464FF0DE
:1006B0000043524263EB0403994208BF904230BDAD
:1006C0001CB509480090094801900546009C06E0C9
:1006D000E06840F0010394E8070098471034AC420A
:1006E000F6D3FFF707FD0000044500082445000885
:1006F000FEE7000070470000EFF3108072B600BF05
:10070000FEE70000B0B5044600F01EF9054640F2D1
:100710000000C2F200000078611C18BF044400BF52
:1007200000F012F9401BA042FAD3B0BD2DE9F04F02
:1007300082B00E68002E00F0FD8041F20042C4F24B
:100740000102042340F2004E904208BF03234FF6FB
:10075000FF7CC4F2010E009300240123C1F2100CAF
:100760004FF0000A4FF000094BE000BF41F20002D9
:10077000C4F20102009F904208BF022704F00C035C
:100780000F229A402BEA020207FA03F34FEA9A0576
:100790001A4346F825204E6840F20C45F202DEF876
:1007A000082054BF22EA080242EA0802C4F2010506
:1007B000CEF808202A68B30254BF22EA080242EAAF
:1007C00008022A60B303DEF8042054BF22EA0802BC
:1007D00042EA0802F303CEF80420DEF800204FF0CE
:1007E000010354BF22EA080242EA0802CEF80020C0
:1007F0000E680AF1010A36FA0AF204F1040400F064
:10080000998003FA0AFB16EA0B08F1D04E68664598
:1008100012DC122E56D8DFE806F0350B4D4955553F
:10082000555555555555555555555545510000BFCC
:10083000D1F80C9046E000BF4FF6FF72C1F22102E2
:1008400096420FDC0022C1F2110296421AD0002219
:10085000C1F21202964215D00022C1F22102964244
:1008600010D02FE00022C1F2220296420AD00022CC
:10087000C1F23102964205D00022C1F23202964204
:1008800020D100BF8A684AB1012A14BFC0F814B051
:10089000C0F810B04FF0080914E000BF4FF0040991
:1008A00010E000BFCA6802F104090BE04FF0000934
:1008B00008E000BFCA6802F1080903E0CA6802F153
:1008C0000C0900BF02462646B8F5807F24BF0432DB
:1008D000203E17680F25B54027EA050509FA06F6F8
:1008E00035431560CA79D2067FF582AF41F218030D
:1008F000C4F202031A68AEF57E7642F001021A6075
:100900001A6802F001020192019A2AF0030256F8D5
:1009100002B040F60002C4F20102904208D040F654
:100920000042C4F2010290427FF420AF012725E784
:10093000002723E702B0BDE8F08F0000002A08BFBF
:10094000090401617047000040F20850C2F2000043
:1009500000687047002804BF01207047F0B581B0DF
:10096000044690F83D0028B9002084F83C00204659
:1009700000F090F9242084F83D002068016821F0FF
:1009800001010160016841F400410160016821F446
:100990000041016000F048FB636848F2A16CC0F2BE
:1009A000010C40F60011C0F23D0163453CBF48F226
:1009B0008041C0F21E01884202D2012001B0F0BD88
:1009C0004DF68361C4F21B31A0FB01122168970C24
:1009D000D1F804E04FF496762EF03F0545EA9245B3
:1009E0004D60774348F638160D6AC0F24106A7FB02
:1009F000067625F03F07634538BF960C721C3A43D4
:100A00000A62CA6948F2A0664CF6FF77C0F2010696
:100A1000B34222EA07020BD801385B00B0FBF3F0C7
:100A200001306FF31F30042898BF04201BE000BF83
:100A3000A768013857B119277B43B0FBF3F00130A9
:100A40006FF31F3070B100F5804007E003EB430304
:100A5000B0FBF3F001306FF31F3018B100F5004028
:100A600001E000BF01201043C8610868D4E90723F2
:100A700020F0C000104318430860886848F2FF3235
:100A800004F10C0790438CCF18431043A66988608B
:100A9000C86820F0FF0038433043C860086840F061
:100AA0000100086000202021206484F83D102063AC
:100AB00084F83E0001B0F0BD2DE9F04383B01E463E
:100AC000174689460446FFF73FFF94F83D1020295A
:100AD00024D10546206800BF816989071AD5FFF730
:100AE00033FF411B20681A29F6D381698907F3D5A2
:100AF00000202021206384F83D1084F83E00216C02
:100B000041F02001216484F83C00022003B0BDE8DC
:100B1000F08300BF94F83C10012903D1022003B0F8
:100B2000BDE8F083012184F83C100168C90703D1B6
:100B3000016841F001010160016840F2020821F4FE
:100B400000610160212184F83D10102184F83E10DD
:100B50000021216467626685618DC0F201082185EC
:100B6000A8F10211E162E16A0A9E11F5803F18BF07
:100B700001291DD1016841F48071016020464FF0C8
:100B8000011100223346009501F05AF950B1206856
:100B90000068C00544BF4FF400702064012003B01A
:100BA000BDE8F0832069B0F5804F07D1FE2015E045
:100BB0000829DFD0216B1229DCD0DFE7062000EA0C
:100BC000D9102168F030086108F10601204632464C
:100BD0002B4601F01BFA0028E0D1FF20216800EA33
:100BE000090008612046414632462B4601F00EFAC4
:100BF0000028D3D1002002902068416902918069C9
:100C00000290029806E000BF204631462A4601F0D5
:100C1000B9F818BB208D68B3204631462A4601F04A
:100C200061FAD8B9606A2168024612F8013B0B618B
:100C30006262628D013A6285228D531E23854F695F
:100C40007F07E1D51B04DFD0437802300B6160627F
:100C5000608D01386085901E2085D5E7206C0428C2
:100C60009CD12068016841F400710160012003B04B
:100C7000BDE8F0832068016841F400710160202024
:100C800084F83D00002084F83E0084F83C0003B066
:100C9000BDE8F08310B586B0016845F20040C4F2AB
:100CA000000081424FF00001CDE90411CDE90211AD
:100CB00002D006B010BD00BF41F21804C4F2020415
:100CC000216800F5384041F008012160216801F0F9
:100CD000080101910199C021029112210391032180
:100CE000059102A9FFF722FD606840F400106060E2
:100CF000606800F400100190019806B010BD00007B
:100D000040F2000040F20851C2F20000C2F20001BD
:100D100000780A68104408607047000080B542F20D
:100D20000000C4F20200016841F0100101600320DC
:100D300000F08CF80F2000F005F800F027F80020F4
:100D400080BD000070B540F20006C2F2000640F21D
:100D500008013278C2F200014FF47A730968B3FBDC
:100D6000F2F20446B1FBF2F1084600F071FB0F2CE1
:100D70004FF0010508D838B94FF0FF302146002266
:100D8000002500F037F87460284670BD82B041F24B
:100D90001800C4F202000168022241F00101016062
:100DA000016801F0010101910199416841F0805110
:100DB0004160406800F08050009000980420C4F228
:100DC0000100016862F31A61016002B0704700001F
:100DD000002848BF704700F01F01012202FA01F10C
:100DE0001C2202EAD0004EF20012CEF20002815024
:100DF0007047000010B54EF60C5CCEF2000CDCF82B
:100E00000030C3F3022E8EF00704042C28BF042404
:100E1000BEF103034FF0FF3E0EFA04F438BF002387
:100E2000A14399400EFA03F39A43114300F00F02D5
:100E300000F160430901043A03F564436244002869
:100E400048BF02F10C03197010BD00004EF60C51A2
:100E5000CEF200010A684FF6FF031A4060F30A223F
:100E600042F0806040F0FD7008607047002804BFC9
:100E7000012070472DE9F04381B042F20008C4F22E
:100E800002080446D8F800000D4600F00700814231
:100E90000CD9D8F8000020F007002843C8F800005B
:100EA000D8F8000000F00700A8426CD1206841F299
:100EB00004098107C4F2020917D5410705D5D9F8FD
:100EC000001041F4E061C9F80010010705D5D9F818
:100ED000001041F46051C9F80010D9F80010A26860
:100EE00021F0F0011143C9F80010C00742D1D8F831
:100EF000000000F0070085420CD2D8F8000020F076
:100F000007002843C8F80000D8F8000000F00700E8
:100F1000A84238D12068410707D5D9F80010E26807
:100F200021F4E0611143C9F80010000708D5D9F891
:100F30000000216920F4605040EAC100C9F80000B7
:100F4000D9F8002002F00C00082841F20020C0F27D
:100F50007A004DD144F2F143C2F38341C0F600035D
:100F6000595CD20338D440F60010C0F23D0048432B
:100F70003EE000BF606859F8041C022808D0012830
:100F800026D1890306D4012001B0BDE8F08300BF5B
:100F90008901F8D5D9F8001021F003010843C9F8F8
:100FA0000000FFF7D1FC064641F28837D9F800006F
:100FB000616800F00C00B0EB810F98D0FFF7C4FC23
:100FC000801BB842F2D9032001B0BDE8F08300BF16
:100FD0008907D8D5DEE700BFD9F8002043F678337B
:100FE000C2F34042C0F600039A5C4843B0FBF2F003
:100FF000D9F8001043F66032C1F30311C0F60002C5
:10100000515C40F2080220FA01F140F20400C2F201
:1010100000000068C2F200021160FFF793FE00209A
:1010200001B0BDE8F083000040F2080041F2040185
:10103000C2F20000C4F202010068096843F670328F
:10104000C1F30221C0F60002515CC84070470000A5
:10105000002804BF012070472DE9F04182B004460A
:10106000007841F20006C007C4F202060CD0706896
:1010700000F00C00042840F081803068800303D524
:101080006068002800F04681207880071BD57068D2
:1010900010F00C0F09D0706800F00C00082840F028
:1010A00087807068C00300F183803068800703D5B3
:1010B0002069012840F02E813068616920F0F80035
:1010C00040EAC10030602078000713D42078400740
:1010D0002CD4E569002D00F01881706800F00C0038
:1010E000082840F0A780012D40F00481012002B0C3
:1010F000BDE8F081A069002800F084800020C4F2DF
:1011000042200121C0F88014FFF71EFC054600BFF5
:10111000706A800700F1B280FFF716FC401B0228BE
:10112000F6D9032002B0BDE8F08100BFF0695FEAA4
:10113000C00808D4F06940F08050F061F06900F018
:1011400080500090009847F20007C4F2000738680A
:10115000C00549D4386840F480703860FFF7F4FB6C
:10116000054600BF3868C0053ED4FFF7EDFB401BC5
:101170006428F7D9032002B0BDE8F081706800F060
:101180000C00082803D17068C0033FF576AF616892
:101190003068002900F00C81B1F5A02F00F000812B
:1011A000B1F5803F40F01A8140F480301CE100BF6F
:1011B0002069002840F20000C4F2422000F088803C
:1011C00001210160FFF7C0FB054600BF30688007C2
:1011D0003FF572AFFFF7B8FB401B0228F6D903209A
:1011E00002B0BDE8F08100BFE168306A002900F07C
:1011F0009D80052900F09280012940F0AF8040F0E9
:101200000100B1E00020C4F242200021C0F88014A7
:10121000FFF79AFB054600BF706A80077FF556AF5F
:10122000FFF792FB401B0228F6D9032002B0BDE86D
:10123000F08100BF0027C4F2422700203866FFF784
:1012400083FB022D05460DD13068800140F1DE8020
:10125000FFF77AFB401B02284FF00300F4D902B0DD
:10126000BDE8F081306880014FD5FFF76DFB401B72
:1012700002284FF00300F5D9F1E700BF40F2080063
:10128000C2F20000006844F6D351C1F26201A0FB33
:101290000101480A019000BF00BF0198411E0028CB
:1012A00001913FF413AF00BF0198411E0028019146
:1012B0003FF40CAF00BF0198411E002801913FF49C
:1012C00005AF00BF0198411E00280191E4D1FDE661
:1012D00000210160FFF738FB054600BF306880073A
:1012E0007FF5F1AEFFF730FB401B02284FF0030003
:1012F000F4D9B4E77068216A00F480328A4209D1D7
:10130000616A00F47010884204D1002002B0BDE888
:10131000F08100BF012002B0BDE8F08140F0040080
:101320003062306A40F001001EE000BF20F0010092
:101330003062306A20F004003062FFF705FB05469A
:1013400041F28837306A800720D5FFF7FDFA401B4D
:10135000B8424FF00300F5D981E700BF20F001004B
:101360003062306A20F004003062FFF7EDFA054683
:1013700041F28837306A800708D4FFF7E5FA401B4E
:10138000B842F7D9032002B0BDE8F081B8F1000FF0
:101390003FF59FAEF06920F08050F06199E600BF04
:1013A00040F480203060306840F480301CE000BFA2
:1013B00020F480303060306820F480203060FFF707
:1013C000C3FA0546306880037FF55EAEFFF7BCFACE
:1013D000401B64284FF00300F4D940E720F480302C
:1013E0003060306820F480203060FFF7ADFA0546A9
:1013F000306880033FF548AEFFF7A6FA401B64282B
:10140000F6D9032002B0BDE8F08100BF206AB0F534
:10141000803F05D17168A26821F4003111437160E9
:101420007168626A21F474111143084370600120ED
:101430003866FFF789FA0446306880013FF565AFEA
:10144000FFF782FA001B02284FF00300F4D906E7E9
:10145000411E0020B0EB116F1CBF012070474EF2FF
:101460001002CEF2000251604EF62351CEF200017E
:10147000F0230B70072190601160704770470000E7
:101480007047000090F83C20012A4FF0020236D04D
:1014900010B580F83D200268D2F804E0D2F808C008
:1014A0000C682EF07003234340F2FF74C4F2000472
:1014B000A24253600ADCB2F1804F13D040F20043E5
:1014C000C4F200039A420DD011E000BF42F600437F
:1014D000C4F201039A4205D040F60003C4F20003AF
:1014E0009A4204D149682CF080031943916001218C
:1014F000002280F83D1080F83C20BDE810401046E6
:101500007047000090F83D1001291CBF0120704772
:10151000022180F83D10006840F2FF71C4F2000122
:10152000884209DCB0F1804F12D040F20041C4F291
:10153000000188420CD012E042F60041C4F20101E1
:10154000884205D040F60001C4F20001884206D16D
:10155000816801F00701062904BF00207047016877
:1015600041F001010160002070470000002804BF25
:10157000012070472DE9F04F81B090F83D2042B92D
:10158000002280F83C2004460D4600F09DF82946D4
:101590002046022280F83D20026844F20705936845
:1015A00042F6004CAB43936040F2FF731468C4F200
:1015B00000039A42C4F2010C14DCB2F1804F19D03E
:1015C00040F20045C4F20005AA4213D09A4217DC4B
:1015D000B2F1804F1CD040F20043C4F200039A42A3
:1015E00016D01AE0624505D040F60005C4F20005A9
:1015F000AA42EBD1856824F070042C439A42E7DDBF
:10160000624505D040F60003C4F200039A4204D1BB
:10161000036924F4407543EA050424F080038469D7
:10162000D0F804E0C568234362451360D562C2F870
:1016300028E002D14369CCF830304FF0010EC2F8F7
:1016400014E01569ED0703D0156925F00105156152
:1016500095689469D2F820C0D1E90038D1E9027BBD
:1016600043EA050A8D694FF6FF7924EA090447EA3F
:1016700005254FF6FC47BD43D1E9077644EA0B0444
:101680000B692C4344EA07242CF02207496944EAF9
:10169000031347EA080743EA063347EA0111C2F891
:1016A00008A09361116280F846E080F83EE080F87F
:1016B0003FE080F842E080F843E080F83DE0002021
:1016C00001B0BDE8F08F000080B586B0014640F65D
:1016D0000000C4F20100096800F51053002299428D
:1016E0000592CDE90322029202D006B080BD00BF70
:1016F00041F21801C4F202010B6843F400630B606D
:101700000B6803F400630193019B0B6843F004032F
:101710000B60096801F00401019101994FF44071D7
:10172000CDE902120121049102A9FEF7FFFF182062
:1017300000210022FFF75EFB1820FFF749FB06B0EF
:1017400080BD000080B590F83E2090F83F3090F8C2
:1017500042E090F843C004290AD0B9B9012A4FF0F9
:10176000010208BFBEF1010F34D0104680BD00BF9A
:10177000012B4FF0010208BFBCF1010FF5D102218E
:1017800080F83F1080F8431000681EE0012A4FF0F7
:10179000010208BF012BE8D1BEF1010FE5D1BCF178
:1017A000010FE2D1022280F83E2080F83F2080F82D
:1017B000422080F8432091B10068016A21F00101C4
:1017C0000162016A41F00101016210216FF0100213
:1017D00009E000BF022180F83E1080F84210006846
:1017E00001216FF00102036A1A400262026A11438A
:1017F00001620168002241F001010160104680BDD4
:101800007047000070B504460068C5680669B107F6
:1018100016D515F0020113D06FF00201016101210C
:1018200021778069800703D02046FFF7E9FF05E0B4
:10183000204600F08FF8204600F02EFA0020207796
:10184000700719D515F0040016D020686FF0040158
:10185000016102212177806910F4407F04D0204685
:10186000FFF7CEFF06E000BF204600F073F82046E9
:1018700000F012FA00202077300717D515F0080085
:1018800014D020686FF00801016104212177C0693C
:10189000800703D02046FFF7B3FF05E0204600F0A5
:1018A00059F8204600F0F8F900202077F00619D505
:1018B00015F0100016D020686FF0100101610821AA
:1018C0002177C06910F4407F04D02046FFF798FFCD
:1018D00006E000BF204600F03DF8204600F0DCF9AD
:1018E00000202077F00718BF15F0010002D1300664
:1018F00009D412E020686FF001010161204600F078
:101900003BFA300609D515F0800006D020686FF04C
:10191000800101612046FFF7B1FD700609D515F081
:10192000400006D020686FF040010161204600F0C1
:1019300025FAB00658BF70BD15F0200008D0216808
:101940006FF0200220460A61BDE87040FFF798BDA5
:1019500070BD00007047000090F83C30012B04BFC0
:10196000022070474FEAB202032A00F2F1802DE90B
:10197000F043DFE802F003A53B7500BF036842F6C1
:1019800000461D6A1A6AC4F2010622F001021A62B8
:101990001A465C6852F818CFB3428E68D1F800E05E
:1019A00025F0020545EA06050CD1CE68D1E9057897
:1019B00024F4407425F00C0526F004063C4335431E
:1019C00044EA08042CF0730747EA0E075C609F6145
:1019D0004F6809695F631D629F6947F008079F614F
:1019E0009F6927F004079F61A6E000BF036842F6E5
:1019F00000461D6A1A6AC4F2010622F480721A6255
:101A00001A46D3F804C052F81CEFB3428E680C6833
:101A100025F4007545EA06250FD1CE68D1E9059871
:101A2000360240F2FF4725F44065BE4335432CF4AF
:101A3000405748EA090647EA061C2EF07307274379
:101A4000C3F804C0DF614F680969DF631D62DF69A5
:101A500047F00807DF61DF6927F00407DF616BE00B
:101A6000036842F60047D3F820C01A6AC4F201079F
:101A700022F480521A621A465C6852F81C5FD1F850
:101A800000E08E68BB4204D14F6924F4804444EAEC
:101A900087142CF4005747EA063725F4E64646EA51
:101AA0000E265C60DE614E6809691E641F62DF6994
:101AB00047F40067DF61DF6927F48067DF613AE0A0
:101AC000036842F600461D6A1A6AC4F2010622F053
:101AD00010021A621A46D3F804C052F8184FB342E3
:101AE0008E68D1F800E025F0200545EA06150FD1F3
:101AF000CE68D1E905986FF0400725F0C00507EAE8
:101B0000061635432CF4406748EA090647EA860C76
:101B100024F4E64444EA0E27C3F804C09F614F68EA
:101B200009699F631D629F6947F400679F619F6910
:101B300027F480679F61090213681943116000212F
:101B4000BDE8F043002280F83C200846704700BF03
:101B50000121002280F83C2008467047002804BF7D
:101B60000120704710B590F83D1031B9002180F880
:101B70003C10044600F070F82046022180F83D1029
:101B8000016840F2FF740B68C4F2000442F6004C96
:101B9000A142C4F2010C15DCB1F1804F1AD040F221
:101BA0000042C4F20002914214D0A14218DCB1F10B
:101BB000804F1DD040F20042C4F20002914217D083
:101BC0001AE000BF614505D040F60002C4F20002F1
:101BD0009142EAD1826823F070031343A142E6DD0B
:101BE000614505D040F60002C4F20002914203D1E3
:101BF000026923F440731343846923F08002D0F810
:101C000004E0C368224361450A60CB62C1F828E062
:101C100002D14269CCF8302001224A610B69DB070E
:101C200003D00B6923F001030B6180F8462080F894
:101C30003E2080F83F2080F8402080F8412080F846
:101C4000422080F8432080F8442080F8452080F826
:101C50003D20002010BD00000068B0F1804F18BF8B
:101C6000704780B582B041F21C00C4F202000168E6
:101C7000002241F0010101600068002100F0010034
:101C8000019001981C20FFF7B5F81C2002B0BDE8B8
:101C90008040FFF79DB8000070470000C1B10429E3
:101CA00008D0082914BF41224022825C012A05D0B5
:101CB00016E000BF3F22825C012A11D102220829CE
:101CC00010D0042914BF80F8412080F83F200BE099
:101CD00090F83E20012A03D1022280F83E2003E042
:101CE0000120704780F84020006801F01F010122A8
:101CF000036A8A4023EA02010162036A42F6444110
:101D0000C4F201011A43A1F14403984202620FD0C8
:101D100040F2FF71C4F20001884213DCB0F1804F41
:101D20001CD040F20041C4F20001884216D01CE0F1
:101D30000A6842F400420A6040F2FF71C4F20001F6
:101D40008842EBDD42F60041C4F20101884205D031
:101D500040F60001C4F20001884206D1816801F01A
:101D60000701062904BF00207047016841F0010106
:101D700001600020704700007047000070470000BD
:101D8000FEE7000070B50368044653F8140F4007DF
:101D900011D40E46481C29D086BB00BF18684005E8
:101DA00027D4FEF7D1FD236853F8140F400737D529
:101DB00018684007F2D5002070BD00BF18684007C2
:101DC000F9D41868400514D418684007F3D418688B
:101DD00040050ED418684007EDD41868400508D4B3
:101DE000186840074FF0000048BF70BD18684005F4
:101DF000E4D56FF480601860042012E0154603E01B
:101E000053F8140F4007D6D418684005F1D4FEF7F4
:101E10009BFD401B2368B042F2D958694007EFD4BC
:101E2000202000212022216384F83D2084F83E10E8
:101E3000226C10432064012084F83C1070BD000027
:101E40002DE9F041054600681E46144601F47F0264
:101E500001338FB242D0DDF81880B2F5803F40F0F8
:101E6000878040693840C01BB0FA80F04009844246
:101E700040F0C8804EB924E040693840C01BB0FA39
:101E800080F04009844240F0BD80FEF75DFDA0EB8C
:101E900008012868B142EFD941693940C91BB1FA3C
:101EA00081F149098C42E7D19BE000BF406938408D
:101EB000C01BB0FA80F0400984424FF0000040F0AF
:101EC000A280FEF741FD286841693940C91BB1FA7B
:101ED00081F149098C42E9D183E000BFB2F5803F2E
:101EE00024D100BF41693940C91BB1FA81F14909C8
:101EF0008C4240F0878041693940C91BB1FA81F1B9
:101F000049098C4240F07E8041693940C91BB1FAD1
:101F100081F149098C4275D141693940C91BB1FA37
:101F200081F149098C42DDD06CE000BF8169394004
:101F3000C91BB1FA81F149098C4263D181693940E9
:101F4000C91BB1FA81F149098C425BD181693940E1
:101F5000C91BB1FA81F149098C4253D181693940D9
:101F6000C91BB1FA81F149098C42DFD04AE000BFB8
:101F700080693840C01BB0FA80F04009844241D1EA
:101F800046B923E080693840C01BB0FA80F04009B0
:101F9000844237D1FEF7D8FCA0EB08012868B14293
:101FA000F0D981693940C91BB1FA81F149098C42E4
:101FB000E8D116E080693840C01BB0FA80F04009D3
:101FC00084424FF0000018BFBDE8F081FEF7BCFC72
:101FD000286881693940C91BB1FA81F149098C42ED
:101FE000E8D100202021286385F83D1085F83E00C7
:101FF000296C41F02001296485F83C000120BDE8EE
:10200000F08100BF0020BDE8F0810000F0B581B094
:10201000044600681D4643698FB203EA0701B942CE
:1020200002D1002001B0F0BD4169164601323CD01A
:10203000490512D47EB300BFFEF786FC411B206821
:10204000B14203D941693940B9422BD14169394084
:10205000B942E6D041694905EED5016841F4007105
:1020600001606FF48061416104200021202221631E
:1020700084F83D2084F83E10226C1043206484F8DC
:102080003C10012001B0F0BD41693940B942C8D0CF
:1020900041694905E1D4FEF757FC206841693940A0
:1020A000B942F1D02020E0E741694905D5D4416922
:1020B0003940B942B5D041694905CED4416939406A
:1020C000B942AED041694905C7D441693940B942E6
:1020D000A7D041694905C0D441693940B942E3D12B
:1020E0009FE7000070B50368044653F8140F00061C
:1020F00011D40E46481C29D086BB00BF1868400585
:1021000027D4FEF721FC236853F8140F000637D5B7
:1021100018680006F2D5002070BD00BF18680006E0
:10212000F9D41868400514D418680006F3D4186868
:1021300040050ED418680006EDD41868400508D490
:10214000186800064FF0000048BF70BD18684005D1
:10215000E4D56FF480601860042012E0154603E0B7
:1021600053F8140F0006D6D418684005F1D4FEF7D2
:10217000EBFB401B2368B042F2D958690006EFD44C
:10218000202000212022216384F83D2084F83E1085
:10219000226C10432064012084F83C1070BD0000C4
:1021A0002DE9F04186B0002641F21800CDE9046621
:1021B000CDE90266C4F20200016840F6000441F075
:1021C000100101600168C4F2010401F010010191E5
:1021D00001990168002241F020010160016801F0CD
:1021E000200101910199016841F004010160016839
:1021F00001F0040101910199016841F008010160B9
:102200000068132100F00800019001982046FEF7B5
:1022100095FB032002AD029001274FF002082046F3
:102220002946CDE90376CDF81480FEF77FFA102019
:10223000CDE9020720462946CDE90478FEF776FA73
:102240002020CDE90206204629460496FEF76EFAC4
:1022500006B0BDE8F081000080B540F2244045F2B0
:102260000041C2F20000C4F2000148F2A062002363
:102270004FF4804CC0F2010280E80E00C0E9033C3C
:10228000C0E90533C0E90733FEF764FB002808BF47
:1022900080BDBDE88040FEF72FBA000010B58CB0BD
:1022A00040F2784042F600410024C2F20000C4F23D
:1022B0000101C0E900140321CDE9031401214FF607
:1022C000FF72CDE90514CDE9091403A9CDE9004455
:1022D000C0E90242C0E904448461CDE907440B949B
:1022E000FFF744F9002818BFFEF706FA40F27840DD
:1022F000C2F200006946CDE90044FFF7C3F80028A8
:1023000018BFFEF7F9F90CB010BD0000B0B590B0E1
:1023100040F2C0400021C2F200004FF0804247234B
:102320000925CDE90811CDE90611CDE90411C0E96F
:102330000023C0E9021501618161FFF70FFC00284D
:1023400018BFFEF7D9F940F2C040C2F2000008A958
:10235000FFF798F8002818BFFEF7CEF940F2C04406
:102360006020C2F200040190002501A92046082245
:10237000CDE902550595FFF7EFFA002818BFFEF7E3
:10238000BBF92068CDE90E55B0F1804F0D950C9545
:1023900002D010B0B0BD00BF41F21800C4F202007C
:1023A000016841F00401016000680CA900F004001C
:1023B0000B900B9804200C9002200D900F9040F68B
:1023C0000000C4F20100FEF7B1F910B0B0BD00008A
:1023D000FEE70000FEE7000080B540F21C00C2F2FC
:1023E00000004FF48161FDF7C4FE80BD70B582B07E
:1023F0006420FEF787F940F224444FF42E40C2F2E5
:102400000004ADF806004FF0FF350DF1060220463E
:10241000782102230095FEF74FFB4FF45540ADF8AD
:1024200006000DF106022046782102230095FEF7F2
:1024300043FB4FF40040ADF806000DF106022046C4
:10244000782102230095FEF737FB4FF42840ADF8C2
:1024500006000DF106022046782102230095FEF7C2
:102460002BFB4FF47C50ADF806000DF10602204620
:10247000782102230095FEF71FFB4FF45340ADF87F
:1024800006000DF106022046782102230095FEF792
:1024900013FB0020ADF806000DF10602204678215E
:1024A00002230095FEF708FB4FF480460DF106026B
:1024B000204678210223ADF806600095FEF7FCFA6D
:1024C0004FF40D40ADF806000DF1060220467821CC
:1024D00002230095FEF7F0FA4FF4A050ADF8060085
:1024E0000DF106022046782102230095FEF7E4FA5A
:1024F0004FF40050ADF806000DF106022046782199
:1025000002230095FEF7D8FA4FF40070ADF80600EC
:102510000DF106022046782102230095FEF7CCFA41
:102520004FF42140ADF806000DF106022046782157
:1025300002230095FEF7C0FA4FF44840ADF80600BC
:102540000DF106022046782102230095FEF7B4FA29
:102550004FF45A40ADF806000DF1060220467821EE
:1025600002230095FEF7A8FA4FF49050ADF806004C
:102570000DF106022046782102230095FEF79CFA11
:102580004FF40140ADF806000DF106022046782117
:1025900002230095FEF790FA4FF4FE40ADF80600D6
:1025A0000DF106022046782102230095FEF784FAF9
:1025B0004FF45940ADF806000DF10602204678218F
:1025C00002230095FEF778FA4FF47140ADF806004B
:1025D0000DF106022046782102230095FEF76CFAE1
:1025E0004FF45B40ADF806000DF10602204678215D
:1025F00002230095FEF760FA0DF1060220467821CD
:102600000223ADF806600095FEF756FA4FF4244019
:10261000ADF806000DF10602204678210223009550
:10262000FEF74AFA4FF42640ADF806000DF1060217
:102630002046782102230095FEF73EFA4FF42F4002
:10264000ADF806000DF10602204678210223009520
:10265000FEF732FA02B070BDF0B5C1B001AF14465A
:102660000D46064646AA38461946009200F0F8FD87
:10267000304629463A46234600F094FA41B0F0BD70
:102680002DE9F04F89B0002B02926DD0029A03EB36
:10269000010E002A56D040F21C0C1618C2F2000C93
:1026A0004FF000080A46894606E000BF09F101091B
:1026B0000FFA89F2964557DD1FFA89F4402C04463B
:1026C0002ED2D20802EBC2120CEB020702460446DD
:1026D000A5B27F2D04F1010598BF07F802802AB248
:1026E0009642E3DDADB27F2D04F1020598BF07F8F5
:1026F00002802AB29642D9DDADB27F2D04F10305E6
:1027000098BF07F802802AB29642CFDDADB20434FA
:102710007F2D98BF07F8028022B29642D8DCC5E729
:10272000621C12B29642C1DDA21C12B29642BDDDFD
:10273000E21C12B29642B9DD043422B29642EFDCBA
:10274000B4E700BF0F4600BF7A1C12B296450BDDFE
:10275000BA1C12B2964507DDFA1C12B2964503DD8B
:1027600004373AB29645EFDC5A1EDDF808E002EB7A
:102770005272BEF1000F4FEAE20700F0FB8101EB5D
:102780005172D31003EBE13322F0070204930823C4
:102790008A1A03EA113111441FFA81F9C1F10801C3
:1027A0008CB20EF003010891411C0191811C009133
:1027B00040F21C01C2F2000101440EF0FC0A039138
:1027C00000214FF00008059708E000BF08F101085C
:1027D000059A5FFA88F18A42C0F2E181129B5FFAA2
:1027E00088F20EFB023B049A0A4401FB0E31082AD0
:1027F00002F10106069167D2082E079280F0A880A8
:10280000BEF1040F80F0EE804FF0000C0899DDF867
:1028100008E0079D0029D9D00CEB00017F2915D8CD
:10282000069D079A15F80C3002EBC21740F21C0205
:10283000C2F2000203FA09F317447B5415F80C3076
:1028400006EBC617079DE34017447B5408990129FE
:10285000BCD0019961447F2917D8069B079A0CF1D7
:10286000010B13F80B7002EBC21540F21C02C2F20E
:10287000000207FA09F715446F5413F80B3006EB02
:10288000C617079DE34017447B54089902299DD041
:10289000009961447F2999D8069B0CF1020C13F82A
:1028A0000C7005EBC51240F21C05C2F2000507FAD8
:1028B00009F72A44575413F80C2006EBC613E240DC
:1028C0002B445A5482E700BF072E3FF67FAFBEF17C
:1028D000040F80F0DD800025089900293FF476AFD1
:1028E00029187F290AD8069A40F21C07525D06EB88
:1028F000C613C2F20007E2403B445A54089901292A
:102900003FF464AF019929447F290BD8069B6A1CC8
:102910009A5C40F21C0706EBC613C2F20007E240C5
:102920003B445A54089902293FF450AF0099294476
:102930007F293FF64BAF069BAA1C9A5C40F21C070E
:1029400006EBC613C2F20007E2403B445A543DE78F
:10295000BEF1040F80F0DA8000250899079F002956
:102960003FF434AF29187F290DD8069A535D079A92
:1029700003FA09F302EBC21740F21C02C2F2000292
:1029800017447B54079F089901293FF41FAF019911
:1029900029447F290ED8069A6B1CD35C079A03FA48
:1029A00009F302EBC21740F21C02C2F20002174404
:1029B0007B54079F089902293FF408AF00992944E6
:1029C0007F293FF603AF069AAB1CD35C07EBC71217
:1029D00040F21C07C2F2000703FA09F33A445354C9
:1029E000F4E600BF02EBC211039A4FF0000C551839
:1029F00005E000BF0CF1040CE2453FF407AF00EB2B
:102A00000C0EBEF17F0F05EB0C030FD90EF1010187
:102A10007F290BEB0C071AD90EF102017F2922D96D
:102A20000EF103017F29E5D829E000BF1BF80C1047
:102A300001FA09F105F80C101BF80C10E14083F8BD
:102A400081100EF101017F290BEB0C07E4D8797896
:102A500001FA09F159707978E14083F882100EF19A
:102A600002017F29DCD8B97801FA09F19970B978A7
:102A7000E14083F883100EF103017F29BAD8F97879
:102A800001FA09F1D970F978E14083F88410B1E7CF
:102A900002EBC211039A0025531803E00435AA453E
:102AA0003FF41AAF47197F2F0AD9791C7F2910D913
:102AB000B91C7F2917D9F91C7F29EFD81DE000BF69
:102AC0001BF805105A19E14082F88110791C7F2902
:102AD000EED80BEB050149785A19E14082F88210D3
:102AE000B91C7F29E7D80BEB050189785A19E14019
:102AF00082F88310F91C7F29D0D80BEB0501C97827
:102B00005A19E14082F88410C8E700BF02EBC211F5
:102B1000039A0025531803E00435AA453FF41DAF7E
:102B200047197F2F04D81BF8051001FA09F15955F0
:102B3000791C7F290BEB050103EB050606D9BA1CAE
:102B40007F2A0AD9FA1C7F2AE6D80DE04A7802FAD1
:102B500009F27270BA1C7F2AF4D88A7802FA09F254
:102B6000B270FA1C7F2AD7D8C97801FA09F1F1703E
:102B7000D2E700BF002000BF40F00101C9B28F4280
:102B80000DDB40F00201C9B28F4208D340F00301CF
:102B9000C9B28F4203D30430C1B28F42ECD209B024
:102BA000BDE8F08F2DE9F04F89B0154612780591F8
:102BB000002A069000F0E2800DF11F01881C0490AD
:102BC000C81C43F67A3A98460390081DC0F6000ADE
:102BD0004FF0250B00264FF00009029016E000BFD1
:102BE000069843F6C741C0F60001304401F1BA0728
:102BF000059900B2062208230097FFF741FD06362B
:102C00001FFA89F02A5C002A00F0B88050B2B0F1B7
:102C1000FF3F13DC02F0E000C02809F1010029D0D9
:102C200002F0F001E02933D002F0F801F02943D09E
:102C300081B26A5C8146002AE8D19FE000208DF8CD
:102C400020000698B8F1060F304400B28DF81F201E
:102C500000F08080B8F1080F40F08C8043F60171DD
:102C6000C0F6000101EB0211A1F5007705990822D9
:102C700010237CE080B2285C8DF81F20002800F033
:102C80007D808DF82000049809F102092FE000BF33
:102C900080B2285C8DF81F2000286FD009F1020156
:102CA00089B2695C8DF82000002967D0039809F18A
:102CB00003098DF821101AE080B2285C8DF81F20DE
:102CC00000285BD009F1020189B2695C8DF820000F
:102CD000002953D009F1030080B2285C8DF821103F
:102CE00000284BD08DF82200029809F104099AF8C7
:102CF000001000294FF00001017015D00024574644
:102D000038460DF11F01FDF73FFA48B10134A0B27A
:102D100000FB0BF11AF8011000FB0BA70029EFD103
:102D2000B8F1060F05D15BE75746B8F1060F3FF43F
:102D300057AFB8F1080F7FF463AF06980599304498
:102D4000053700B2102210230097FFF799FC1036C8
:102D500056E700BF02EB420143F6C742C0F600024D
:102D600002EB4101A1F1C007059906220823009753
:102D7000FFF786FC09F10109464441E709B0BDE8C7
:102D8000F08F00002DE9F04F83B040F224444FF45F
:102D90003040C2F200040DF10608ADF806004FF015
:102DA000FF3620467821424602230096FDF784FE36
:102DB0004FF480500DF1080BADF808002046782143
:102DC0005A4602230096FDF777FE00200DF10A0512
:102DD000ADF80A00204678212A4602230096FDF726
:102DE0006BFE40F21C0AC2F2000A0AF101005146D1
:102DF0008122FDF797F940208AF8000020467821CB
:102E0000524681234FF040090096FDF755FE4FF4DE
:102E10003140ADF806002046782142460223009654
:102E2000FDF74AFE4FF48050ADF8080020467821A7
:102E30005A4602230096FDF73FFE0020ADF80A0037
:102E4000204678212A4602230096FDF735FE0AF136
:102E500081070AF1820039468122FDF763F9204695
:102E600078213A4681238AF881904FF040090096F4
:102E7000FDF722FE4FF43240ADF8060020467821DF
:102E8000424602230096FDF717FE4FF48050ADF83E
:102E90000800204678215A4602230096FDF70CFED2
:102EA0000020ADF80A00204678212A460223009629
:102EB000FDF702FE0AF581770AF2031039468122F6
:102EC000FDF730F9204678213A4681238AF80291AD
:102ED0004FF040090096FDF7EFFD4FF43340ADF899
:102EE000060020467821424602230096FDF7E4FDC5
:102EF0004FF48050ADF80800204678215A4602234E
:102F00000096FDF7D9FD0020ADF80A002046782193
:102F10002A4602230096FDF7CFFD0AF283170AF531
:102F2000C27039468122FDF7FDF8204678213A46E5
:102F300081238AF883914FF040090096FDF7BCFD8C
:102F40004FF43440ADF80600204678214246022373
:102F50000096FDF7B1FD4FF48050ADF80800204613
:102F600078215A4602230096FDF7A6FD0020ADF811
:102F70000A00204678212A4602230096FDF79CFD90
:102F80000AF501770AF2052039468122FDF7CAF8D1
:102F9000204678213A4681238AF804924FF040096E
:102FA0000096FDF789FD4FF43540ADF80600204648
:102FB0007821424602230096FDF77EFD4FF48050B3
:102FC000ADF80800204678215A4602230096FDF706
:102FD00073FD0020ADF80A00204678212A4602231E
:102FE0000096FDF769FD0AF285270AF28620394628
:102FF0008122FDF797F8204678213A4681238AF806
:1030000085920096FDF758FD4FF43640ADF8060066
:1030100020467821424602230096FDF74DFD4FF4ED
:103020008050ADF80800204678215A4602230096C9
:10303000FDF742FD0020ADF80A00204678212A461F
:1030400002234FF000090096FDF736FD0AF206371D
:103050000AF2073039468122FDF764F840208AF8E9
:103060000603204678213A4681230096FDF724FD89
:103070004FF43740ADF8060020467821424602233F
:103080000096FDF719FD4FF48050ADF8080020467A
:1030900078215A4602230096FDF70EFD204678213E
:1030A0002A460223ADF80A900096FDF705FD0AF2C4
:1030B00087350AF5627029468122FDF733F84020F2
:1030C0008AF88703204678212A4681230096FDF757
:1030D000F3FC03B0BDE8F08F7047000070470000BC
:1030E000FDF70EBE7047000040F27840C2F20000CB
:1030F000FEF788BB40F2C040C2F20000FEF782BB80
:10310000FEE7000092B0FDF709FE00240120CDE9A2
:103110000D44CDE90B4408900C904FF4E0104FF4AF
:1031200080310225119008A8CDE90914CDE90F518D
:10313000FDF78EFF20B1EFF3108072B6FEE700BFFF
:103140000F20CDE903054FF48060CDE9060403A804
:1031500002210594FDF78AFE20B1EFF3108072B6CC
:10316000FEE700BFFFF71CF8FFF7D0F8FFF796F86F
:10317000FFF772F81420FDF7C5FAFFF737F9FFF7EC
:103180002BF9FFF7FFFD40F2C044C2F200042046D5
:10319000FEF7B8F920460821FEF780FD40F278409E
:1031A000C2F200000421FEF7CDFA20686421C16359
:1031B00000F044F840F21005C2F2000512A600BF6C
:1031C0004FF47A70FDF79EFAD5E9010108224C1CF4
:1031D0003B29AC60A2BF01300024C5E90104296885
:1031E0003C28A2BF01310020C5E90010CDE9001044
:1031F0000020002133460294FFF72EFAFFF7C2FDAC
:1032000000F00AF8DCE700BF253032643A2530329E
:10321000643A25303264000010B540F60004C4F270
:103220000104204601210022FDF788FB20460221EF
:103230000122BDE81040FDF781BB000010B540F64B
:103240000004C4F20104204601210022FDF776FBB0
:10325000204602210022BDE81040FDF76FBB0000B0
:1032600037B514460846064B6A46214600F0DCF89E
:1032700004466946002000F06EFC20463EBD00007A
:10328000573B000802E008C8121F08C1002AFAD103
:1032900070477047002001E001C1121F002AFBD1D6
:1032A000704700002DE9FF5F82B00021DDE90430A6
:1032B000020DDDF840B0034318D044F61050A2F2DE
:1032C000FF3242431514119801281FD0A5EB0B00C3
:1032D000401C5FEA000A4FF000064E4FDFF83891BD
:1032E000B046504615D5CAF1000413E011980124E8
:1032F0004AA3012801D16FEA0B010298119AC0E993
:103300000031C0E9024206B0BDE8F09FCBF10000F9
:10331000DFE704460021404A491842EB0450CDE95A
:10332000001012E0E00707D032463B4640464946CF
:10333000FCF7DFFF8046894632463B461046194679
:10334000FCF7D7FF06460F466410002CEAD1DDE9F2
:103350000401DDE90023BAF1000F06DAFCF7C9FF2A
:1033600042464B46FCF7C5FF05E0FDF734F8424600
:103370004B46FDF730F804460E460022284BFDF779
:1033800087F903D84FF0FF30014607E00022254BB4
:1033900020463146FCF706FFFDF761F9102409E0ED
:1033A000002C0ADB0A220023FDF79AF8039B303237
:1033B0001A55641E50EA0102F2D1641C039AC4F14A
:1033C00011031444119A012A03D0012208430DD19C
:1033D0000AE0084304D000204FF0110B119072E76F
:1033E000A3EB0B056D1E0DE05B4504DD4FF0000205
:1033F00005F1010504E003DA4FF00002A5F1010533
:10340000002AECD002981199C0E90231C0E90045C8
:1034100079E70000000014400000F03F3000000099
:103420000000F0430000E03F2DE9FF4F95B09B46C0
:103430008946064600250FE2252877D10024274635
:10344000F84A0121059400E0044316F8013F203BAF
:1034500001FA03F01042F7D130782A2811D06FF02A
:103460002F033078A0F13002092A16D8059A44F0CB
:10347000020402EB820203EB42021044761C059028
:10348000EFE759F8042B0592002A03DA504244F47E
:103490000054059044F00204761C30782E2816D192
:1034A00016F8010F44F004042A280DD06FF02F0203
:1034B0003078A0F13003092B09D807EB870302EB22
:1034C0004303C718761CF3E759F8047B761C307861
:1034D0006C280FD006DC4C2817D068280DD06A283D
:1034E00014D104E0742810D07A280FD10DE044F4F0
:1034F00000140AE044F4801401E044F440147278AB
:10350000824202D104F58014761C761C307866283D
:103510000BD013DC582877D009DC002875D045285B
:10352000F6D04628F4D047281AD19DE118E0632848
:1035300035D0642879D0652812D195E1702873D0F0
:1035400008DC6728F1D069286FD06E280DD06F286D
:1035500006D1B5E073282CD0752875D0782874D0A2
:103560005A46179990476D1C75E1C4F30250022822
:1035700009D003280DD0D9F8001004280DD00D6013
:1035800009F1040967E1D9F80010EA17C1E900520E
:10359000F6E7D9F800100D80F2E70D70F0E719F8A2
:1035A000041B8DF8001000208DF80100EA46012070
:1035B00003E059F804AB4FF0FF3061074FF0000112
:1035C00002D40DE008F101018846B9420FDA8045C6
:1035D000F8DB1AF808100029F4D108E008F101011D
:1035E00088468142FADB1AF808100029F6D10598BE
:1035F0005B46A0EB080721463846179A00F094FA7C
:10360000284400EB080507E04DE029E10DE01AF839
:10361000010B5A4617999047B8F10108F7D25B465B
:1036200021463846179A13E142E00A220092C4F379
:1036300002524FF0000A022A08D059F804CB032A9C
:103640004FEAEC710AD00DE029E02AE009F1070108
:1036500021F00702F2E802C1914609E00FFA8CFC62
:103660004FEAEC71042A03D14FFA8CFC4FEAEC715B
:10367000002907DA0A460021DCF1000C61EB0201A7
:103680002D2202E0220504D52B228DF804200122F0
:1036900003E0E20701D02022F7E7904659E00A2133
:1036A00002E010220DE010214FF0000A00910BE023
:1036B00010224FF0000A44F004040827009203E0AF
:1036C00008224FF0000A0092C4F30252022A05D0E9
:1036D00059F804CB0021032A08D009E009F10701B9
:1036E00021F00702F2E802C1914605E01FFA8CFCC6
:1036F000042A01D10CF0FF0C4FF00008220728D556
:10370000702806D0009B83F0100353EA0A0305D00B
:103710000EE040228DF80420012208E05CEA01025C
:1037200006D030228DF804208DF805000222904644
:10373000009B83F0080353EA0A030AD15CEA010202
:1037400001D1620705D530228DF804204FF0010821
:103750007F1E582804D034A003900EA802900DE0DC
:1037600036A0F9E753466046009AFCF7B9FE844656
:103770000398825C0298401E029002705CEA01008D
:10378000F0D1029806A9081A00F1200A600702D5B4
:1037900024F4803400E00127574502DDA7EB0A003E
:1037A00000E0002000EB0A01009005984144401A17
:1037B0000590E00306D45B462146179A059800F071
:1037C000B3F90544002706E001A85A46C05D1799E1
:1037D00090476D1C7F1C4745F6DBE0030CD55B462C
:1037E0002146179A059800F09FF9054404E030201F
:1037F0005A46179990476D1C0099481E0090002961
:10380000F5DC08E0029802995A460078491C0291BA
:10381000179990476D1CBAF10001AAF1010AF1DC79
:1038200065E1000009280100303132333435363784
:1038300038396162636465660000000030313233FC
:10384000343536373839414243444546000000009C
:1038500000F058F90544761C307800287FF4ECAD70
:1038600019B02846BDE8F08F620700D4062709F199
:10387000070222F0070CFCE80223E14603F00048AF
:103880005FEA080C02D00FF2702C0DE05FEA045CD6
:1038900002D50FF2682C07E05FEAC47C02D00FF279
:1038A000602C01E0AFF2700C4FF0FF3823F00043C2
:1038B000CDF850C065280CD006DC452809D0462834
:1038C0001DD047283DD13DE0662818D067287ED11D
:1038D00038E00021112F01DB112000E0781CCDE938
:1038E000000106A90EA8FFF7DDFCDDE90F010E9A25
:1038F00003910021009207F1010A04914DE04FF07D
:1039000000400097CDE9011006A90EA8FFF7CAFCF8
:10391000DDE90F0203920E9B11990022DDF80CA045
:103920000093049211B9791C00EB010AB7EB0A006D
:1039300004D4C0F1FF3007F1010A0490AAEB07009C
:10394000019044E0012F00DA01270021112F01DD51
:10395000112000E03846CDE9000106A90EA8FFF7C6
:10396000A1FCDDE90F010E9A039100210491009260
:10397000BA4621070CD40399514500DA8A46BAF1B8
:10398000010F05DD009AAAF10101515C302908D030
:10399000B84202DA10F1040F06DA0121CDE9011074
:1039A00015E0AAF10101E9E7002805DC04990144CA
:1039B0000491AAEB000102E0411C514500DD8A465A
:1039C0000499401A401C01904FF0004002902007DB
:1039D00004D40198504501DBCDF8048000208DF817
:1039E0004F0002980DF14F07B0F1004F25D02B206A
:1039F0000E9002984FF0020800280CDA4042029024
:103A00002D200E9007E00A210298FCF753FD30317B
:103A1000029007F8011DB8F10001A8F10108F2DCDD
:103A200002980028EFD1791E0E980870307800F0C7
:103A3000200040F0450007F8020D12A8C01B00F15D
:103A400007081498007800B1012000EB0A010198E2
:103A500001EBE07105984144401A401E0590E003D7
:103A600006D45B462146179A059800F05DF8054498
:103A70001498007818B15A46179990476D1CE003C6
:103A800024D55B462146179A059800F04DF8054469
:103A90001CE00498002807DBDDE90301884203DD10
:103AA0000098405C179901E0179930205A469047DA
:103AB000049805F10105401C04900198401E0190F6
:103AC00004D12E205A46179990476D1CBAF1000177
:103AD000AAF1010ADDDC05E017F8010B5A46179937
:103AE00090476D1CB8F10001A8F10108F4DC5B46B9
:103AF0002146179A0598ABE62D0000002B00000028
:103B0000200000002DE9F041044600251E4617461E
:103B1000880404D405E039462020B0476D1C641E9B
:103B2000F9D52846BDE8F0812DE9F041044600258D
:103B30001E469046C80301D5302700E020278804A0
:103B400004D505E041463846B0476D1C641EF9D5E2
:103B50002846BDE8F0810A68531C0B60107070475E
:103B6000000000000000000001020304060708092D
:103B700000000000010203040102EFBC8C00000001
:103B80000000000000000000000000000000000035
:103B9000005838000000000000000000000000E3B2
:103BA0008082000000000000000000000000000013
:103BB000000000000000182424180000000000008D
:103BC00000000000E4BDA00000008060F807402075
:103BD000180F08C80808281800010000FF00100C82
:103BE0000340807F0001061800E5A5BD000010100D
:103BF000F01F10F000808282E2928A8680004022CC
:103C000015081661000040807F0000000000E4B845
:103C1000960000202020FE2020FF202020FF2020D2
:103C20002020000000007F4040474444444740407B
:103C3000400000E7958C0000000000FE929292FE8A
:103C4000929292FE0000000008080484621E0100A7
:103C500001FE020404080800E9809F000040404281
:103C6000CC0004F49494FF9494F4040000004020E9
:103C70001F20484442415F414244484000E5BAA603
:103C800000000000FC242424FC252624FC242424F9
:103C9000040040308F80844C55252525554C80806C
:103CA00080000000000000FF01010131090909093D
:103CB000897101010101FFFF8080808080809681F1
:103CC000808080808080FF000000000000000000F5
:103CD0002F000000000700070000147F147F14006D
:103CE000242A7F2A120023130864620036495522D1
:103CF0005000000007000000001C224100000041AD
:103D0000221C000014083E08140008083E080800A1
:103D10000000A060000008080808080000606000BB
:103D200000002010080402003E5149453E000042B8
:103D30007F4000004261514946002141454B31001E
:103D40001814127F10002745454539003C4A49495F
:103D5000300001710905030036494949360006491A
:103D600049291E00003636000000005636000000CB
:103D700008142241000014141414140000412214E9
:103D800008000201510906003E4955592E007C12D7
:103D900011127C007F49494936003E4141412200D1
:103DA0007F4141221C007F49494941007F0909099F
:103DB00001003E4149497A007F0808087F00004120
:103DC0007F4100002040413F01007F081422410054
:103DD0007F40404040007F020C027F007F040810BB
:103DE0007F003E4141413E007F09090906003E41F6
:103DF00051215E007F091929460046494949310091
:103E000001017F0101003F4040403F001F20402052
:103E10001F003F4038403F00631408146300070848
:103E200070080700615149454300007F414100008F
:103E30000204081020000041417F0000040201023A
:103E400004004040404040000001020400002054B3
:103E5000545478007F484444380038444444200097
:103E6000384444487F00385454541800087E0901EF
:103E7000020018A4A4A47C007F0804047800004475
:103E80007D4000004080847D00007F1028440000B9
:103E900000417F4000007C04180478007C08040482
:103EA0007800384444443800FC24242418001824A2
:103EB0002418FC007C0804040800485454542000D2
:103EC000043F444020003C4040207C001C20402017
:103ED0001C003C4030403C004428102844001CA0FA
:103EE000A0A07C004464544C440000087F410000C2
:103EF00000007F00000000417F0800000804081057
:103F000008000000000000000000000000000000A9
:103F100000000000F8000000000000003330000046
:103F20000000160E00160E00000000000000000049
:103F30000040C07840C0784000043F04043F0404BF
:103F400000007088FC08300000001820FF211E00CF
:103F500000F008F000E018000000211C031E211EE4
:103F60000000F00888700000001E2123241927217A
:103F700010000000160E000000000000000000000D
:103F800000000000E01804020000000007182040B4
:103F90000000020418E000000000402018070000A4
:103FA00000404080F0804040000202010F01020208
:103FB00000000000F0000000000101011F010101EC
:103FC00000000000000000000000B07000000000D1
:103FD00000000000000000000000010101010101DB
:103FE0000100000000000000000030300000000070
:103FF0000000000000806018040060180601000046
:104000000000E010080810E000000F102020100F42
:1040100000001010F8000000000020203F202000C9
:104020000000700808088870000030282422213021
:104030000000300888884830000018202020110E29
:10404000000000C02010F8000000070424243F24D2
:104050000000F80888880808000019212020110EA7
:104060000000E0108888180000000F112020110EB9
:104070000000380808C83808000000003F000000B1
:10408000000070880808887000001C222121221C72
:104090000000E010080810E0000000312222110F9B
:1040A00000000000C0C00000000000003030000030
:1040B00000000000C0C0000000000080B0700000E0
:1040C00000000080402010080000010204081020B9
:1040D0000040404040404040000404040404040404
:1040E0000000081020408000000020100804020199
:1040F00000007048080808F0000000003036010099
:1041000000C030C828E810E0000718272423140B4B
:10411000000000C038E0000000203C2302022738E5
:104120002008F8888888700000203F202020110E89
:1041300000C03008080808380007182020201008A0
:104140000008F808080810E000203F202020100F89
:104150000008F88888E8081000203F202023201855
:104160000008F88888E8081000203F2000030000BD
:1041700000C03008080838000007182020221E025E
:104180000008F808000008F808203F210101213F3D
:1041900020000808F8080800000020203F20200028
:1041A0000000000808F8080800C08080807F000038
:1041B0000008F888C028180800203F200126382071
:1041C0000008F8080000000000203F2020202030D8
:1041D0000008F8F800F8F80800203F003F003F20F2
:1041E0000008F830C00008F808203F200007183FFA
:1041F00000E01008080810E0000F10202020100F29
:104200000008F808080808F000203F21010101001B
:1042100000E01008080810E0000F18242438504F60
:104220000008F8888888887000203F2000030C3040
:104230002000708808080838000038202121221C3E
:1042400000180808F8080818000000203F200000A7
:104250000008F808000008F808001F202020201F90
:10426000000878880000C83808000007380E0100F0
:1042700000F80800F80008F800033C0700073C03BA
:1042800000081868808068180820302C03032C3040
:10429000200838C800C83808000000203F2000006F
:1042A0000010080808C838080020382621202018E7
:1042B00000000000FE020202000000007F404040BB
:1042C00000000C30C000000000000000010638C0F3
:1042D0000000020202FE000000004040407F00009B
:1042E000000020100804081020000000000000005A
:1042F000000000000000000000808080808080803E
:10430000800002040800000000000000000000001F
:104310000000008080808000000019242222223FBB
:104320002008F8008080000000003F112020110EBE
:10433000000000008080800000000E11202020116D
:1043400000000000808088F800000E112020103F3F
:10435000200000808080800000001F222222221383
:1043600000008080F0888888180020203F202000EE
:10437000000000808080808000006B9494949360A3
:104380000008F8008080800000203F210000203FCE
:104390002000809898000000000020203F2020008E
:1043A00000000000809898000000C08080807F009E
:1043B0000008F8000080808000203F24022D30207B
:1043C00000000808F8000000000020203F20200026
:1043D000008080808080808000203F20003F20007F
:1043E0003F008080008080000000203F2100203FAF
:1043F000200000808080800000001F202020201FDF
:1044000000808000808000000080FFA12020110E2D
:10441000000000008080808000000E112020A0FF9E
:1044200080808080008080800020203F212000014B
:104430000000008080808080000033242424241920
:1044400000008080E0808000000000001F2020002D
:10445000008080000000808000001F202020103F8E
:1044600020808080000080808000010E30080601DE
:104470000080800080008080800F300C030C300FA3
:104480000000808000808080000020312E0E3120CE
:1044900000808080000080808080818E70180601FE
:1044A0000000808080808080000021302C2221301C
:1044B0000000000000807C020200000000003F407D
:1044C0004000000000FF00000000000000FF0000AE
:1044D000000002027C800000000040403F0000001D
:1044E00000008040408000008000000000000101CA
:1044F0000002030405060708090A0B0C0D0E0F1035
:1045000010000000284500080000002010000000F6
:10451000843200083845000810000020000900001F
:1045200094320008000000000100000010000000AC
:0845300000127A0000000000F7
:04000005080000ED02
:00000001FF
